:020000040800F2
:10000000C805002001010008C5130008751200088A
:10001000C11300088D0100088518000800000000C9
:100020000000000000000000000000003D14000877
:100030009101000800000000C71300083F140008E9
:100040001B0100081B0100081B0100081B01000820
:100050001B0100081B010008930100081B01000898
:100060001B0100081B0100081B0100081B01000800
:100070001B0100081B0100081B0100081B010008F0
:100080001B0100081B0100081B0100081B010008E0
:100090001B0100081B0100081B0100081B010008D0
:1000A0001B0100081B0100081B0100081B010008C0
:1000B0001B0100081B0100081B0100081B010008B0
:1000C0001B0100081B0100081B0100081B010008A0
:1000D0001B0100081B010008751800081B0100081F
:1000E0001B0100081B0100081B010008DFF80CD0F1
:1000F00000F03AF800480047E1180008C805002061
:100100000648804706480047FEE7FEE7FEE7FEE7B1
:10011000FEE7FEE7FEE7FEE7FEE7FEE7AD140008B8
:10012000ED000008D2B201E000F8012B491EFBD21D
:1001300070470022F6E710B513460A4604461946F2
:10014000FFF7F0FF204610BD421C10F8011B0029EC
:10015000FBD1801A7047034611F8012B00F8012BE0
:10016000002AF9D118467047064C074D06E0E068B2
:1001700040F0010394E8070098471034AC42F6D3EE
:10018000FFF7B8FF341B0008541B000800BFFEE750
:10019000704710B5012000F05DF810BD70470000F9
:1001A00070B50446002594F82100022803D00420ED
:1001B000A063012548E02068006820F00E00216857
:1001C00008602068006820F00100216808601F496D
:1001D0002068884201D1012026E01C4914312068A2
:1001E000884201D110201FE0184928312068884238
:1001F00001D1801518E015493C312068884201D1B1
:10020000801411E0114950312068884202D14FF426
:10021000803009E00D4964312068884202D14FF4F2
:10022000801001E04FF080700849083948600120D3
:1002300084F8210000BF002084F8200000BF606B1C
:1002400010B12046616B8847284670BD0800024007
:100250007047000010B5044604480068204020B1F3
:10026000024804602046FFF7F3FF10BD140401406C
:100270002DE9F8470346002294466EE14FF001084D
:1002800008FA02F4D1F8008008EA0400A0427DD107
:10029000DFF8DCA2D1F80480A8EB0A09D0453AD0F7
:1002A00014DCB8F1030F50D009DCB8F1000F31D0E5
:1002B000B8F1010F1CD0B8F1020F49D120E0B8F11C
:1002C000110F18D0B8F1120F42D11EE0B9F5881FF6
:1002D00025D006DCB9F5803F20D0B9F5801F37D195
:1002E0001AE0B9F5001F18D0B9F5041F30D117E096
:1002F000D1F80CC02DE0D1F80C8008F1040C28E0F6
:10030000D1F80C8008F1080C23E0D1F80C8008F13A
:100310000C0C1EE000BF00BF00BF00BF00BF00BF4D
:10032000D1F80880B8F1000F02D14FF0040C0BE0B7
:10033000D1F80880B8F1010F03D14FF0080C1C610F
:1003400002E04FF0080C5C6103E04FF0000C00E0AD
:1003500000BF00BFFF2801D8984601E003F1040860
:100360004646FF2802D84FEA820803E0A2F10808B7
:100370004FEA88084746D6F800804FF00F0909FA7F
:1003800007F928EA09080CFA07F900E088E048EACA
:100390000908C6F80080D1F8048008F08058B8F148
:1003A000805F7DD100BFDFF8CC81D8F8188048F09D
:1003B0000108DFF8C091C9F81880C846D8F818803D
:1003C00008F00108CDF8008000BF00BF4FEAB9383F
:1003D0004FEA920958F829504FEA82784FEA187983
:1003E0004FF00F0808FA09F825EA0805DFF88881B8
:1003F000434502D14FF0000816E0DFF88081434505
:1004000002D14FF001080FE0DFF87481434502D1BB
:100410004FF0020808E0DFF86C81434502D14FF04D
:10042000030801E04FF004084FEA82794FEA197996
:1004300008FA09F848EA0505DFF84C814FEA920905
:1004400048F82950D1F8048008F48038B8F5803F86
:100450000AD1DFF83881D8F8008048EA0008DFF8D0
:100460002C91C9F8008009E0DFF82081D8F80080DD
:1004700028EA0008DFF81491C9F80080D1F8048058
:1004800008F40038B8F5003F10D1DFF8008108F11A
:100490000408D8F8008048EA0008DFF8F09000E08F
:1004A0005AE009F10409C9F800800DE0DFF8DC80AA
:1004B00008F10408D8F8008028EA0008DFF8CC909A
:1004C00009F10409C9F80080D1F8048008F4801803
:1004D000B8F5801F0ED1DFF8B48008F10808D8F80D
:1004E000008048EA0008DFF8A49009F10809C9F87B
:1004F00000800DE0DFF8948008F10808D8F800804B
:1005000028EA0008DFF8849009F10809C9F800809A
:10051000D1F8048008F40018B8F5001F0ED1DFF8F8
:100520006C8008F10C08D8F8008048EA0008DFF871
:100530005C9009F10C09C9F800800DE0DFF84C80EF
:1005400008F10C08D8F8008028EA0008DFF83C9091
:1005500009F10C09C9F80080521CD1F8008028FA72
:1005600002F8B8F1000F7FF489AEBDE8F88700000B
:10057000000011100010024000080140000C014072
:100580000010014000140140080001400004014037
:100590000AB1016101E00B04036170470148006882
:1005A00070470000100000200348006803490978E4
:1005B000084401490860704710000020180000201E
:1005C00010B50848006840F0100006490860032094
:1005D00000F0A8F8002000F007F800F02BF8002049
:1005E00010BD00000020024070B504460E4800789F
:1005F0004FF47A71B1FBF0F00C490968B1FBF0F5EA
:10060000284600F00BFC08B1012070BD102C07D269
:1006100000222146501E00F047F80548046001E022
:100620000120F2E70020F0E7180000201C00002065
:100630001400002008B500BF1148806940F0010097
:100640000F4988610846806900F00100009000BFF2
:1006500000BF00BF0846C06940F08050C86108462E
:10066000C06900F08050009000BF00BF00BF054986
:10067000486820F0E06040F00070486000BF08BDAE
:10068000001002400000014001460846002809DB36
:1006900000F01F0301229A4043099B0003F1E0236D
:1006A000C3F8002100BF70472DE9F05F80460D467A
:1006B0001646002701F0E8F8074639462A46334631
:1006C00001F00700C0F1070ABAF1040F02D94FF098
:1006D000040A01E0C0F1070AD14600F1040ABAF1A8
:1006E000070F02D24FF0000A01E0A0F1030AD4463E
:1006F0004FF0010A0AFA09FAAAF1010A0AEA020A03
:100700000AFA0CFA4FF0010B0BFA0CFBABF1010BE0
:100710000BEA030B4AEA0B042146404601F0BCF801
:10072000BDE8F09F00BF00F00702064B19684FF6C6
:10073000FF031940044B0B4343EA0221014B1960AC
:1007400000BF70470CED00E00000FA0570B50446EC
:100750000D460CB9012070BD5A48006800F0070032
:10076000A8420ED25748006820F007002843554998
:1007700008600846006800F00700A84201D0012088
:10078000E9E7207800F0020002281DD1207800F06F
:100790000400042805D14C48406840F4E0604A4910
:1007A0004860207800F00800082805D146484068D5
:1007B00040F46050444948604348406820F0F000ED
:1007C000A168084340494860207800F0010078B3F0
:1007D0006068012806D13C48006800F4003090B9F8
:1007E0000120B8E76068022806D13748006800F0A9
:1007F000007040B90120AEE73348006800F0020005
:1008000008B90120A7E73048406820F0030061687C
:1008100008432D494860FFF7C1FE064609E0FFF78F
:10082000BDFE801B41F28831884202D9032092E745
:1008300007E02548406800F00C006168B0EB810FCC
:10084000EDD12048006800F00700A8420ED91D48ED
:10085000006820F0070028431A490860084600682D
:1008600000F00700A84201D0012074E7207800F0D2
:100870000400042807D11448406820F4E060E168CF
:10088000084311494860207800F00800082808D182
:100890000D48406820F46050216940EAC1000A49CF
:1008A000486000F03FF808494968C1F30311074A5E
:1008B000515CC8400649086006480068FFF794FE8E
:1008C000002048E700200240001002401C1B0008E6
:1008D0001C00002014000020014800687047000040
:1008E0001C00002000B5FFF7F7FF04494968C1F379
:1008F0000221034A515CC84000BD000000100240C4
:100900002C1B000800B5FFF7E7FF04494968C1F355
:10091000C221034A515CC84000BD000000100240E3
:100920002C1B0008F0B585B00FF26C0C9CE8E010B1
:1009300001A8A0E8E0101CA52D6800950021002268
:10094000002300240020194D696801F00C05F5B161
:10095000042D02D0082D19D101E0154819E001AD90
:10096000C1F38346AC5D01F4803555B10F4D6D6820
:10097000C5F340451DF805200D4D6543B5FBF2F369
:1009800002E00C4D04FB05F3184602E000BF0848E6
:1009900000BF00BF05B0F0BD02030405060708094B
:1009A0000A0B0C0D0E0F1010010200000010024087
:1009B00000127A0000093D00F8B504460CB9012088
:1009C000F8BD207800F00100002878D0F848406891
:1009D00000F00C0004280CD0F548406800F00C0032
:1009E000082811D1F248406800F48030B0F5803F0B
:1009F0000AD1EF48006800F4003000285FD060683A
:100A000000285CD10120DBE700BF6068B0F5803FC3
:100A100006D1E748006840F48030E549086028E0E6
:100A2000606858B9E248006820F48030E049086006
:100A30000846006820F4802008601AE06068B0F57D
:100A4000A02F0BD1DA48006840F48020D849086014
:100A50000846006840F4803008600AE0D448006826
:100A600020F48030D24908600846006820F48020D5
:100A7000086000BF606888B1FFF790FD054606E09A
:100A8000FFF78CFD401B642801D9032098E7C84874
:100A9000006800F400300028F2D010E0FFF77EFD7F
:100AA000054606E0FFF77AFD401B642801D90320C4
:100AB00086E7BF48006800F400300028F2D12078B3
:100AC00000F00200022857D1B948406800F00C003D
:100AD00050B1B748406800F00C00082818D1B4485D
:100AE000406800F4803098B9B148006800F0020016
:100AF00020B12069012801D0012061E7AC480068DD
:100B000020F0F800616940EAC100A949086033E0BB
:100B10002069E8B10120A7490860FFF73FFD0546BD
:100B200006E0FFF73BFD401B022801D9032047E701
:100B30009F48006800F002000028F2D09C4800683E
:100B400020F0F800616940EAC1009949086013E0AB
:100B5000002098490860FFF721FD054606E0FFF7F1
:100B60001DFD401B022801D9032029E79048006899
:100B700000F002000028F2D1207800F008000828D8
:100B80002DD1A069B8B101208B490860FFF706FD9F
:100B9000054606E0FFF702FD401B022801D90320AD
:100BA0000EE78348406A00F002000028F2D00120DE
:100BB00000F00AFC13E000207F490860FFF7EEFC1C
:100BC000054606E0FFF7EAFC401B022801D9032096
:100BD000F6E67748406A00F002000028F2D120785B
:100BE00000F00400042873D100277148C06900F0A8
:100BF000805070B900BF6E48C06940F080506C49A9
:100C0000C8610846C06900F08050009000BF00BF76
:100C100001276A48006800F48070B0B9674800682E
:100C200040F4807065490860FFF7B8FC054606E0AF
:100C3000FFF7B4FC401B642801D90320C0E65F48DD
:100C4000006800F480700028F2D000BFE06801283E
:100C500006D15748006A40F001005549086227E074
:100C6000E06858B95248006A20F001005049086213
:100C70000846006A20F00400086219E0E0680528D0
:100C80000BD14B48006A40F004004949086208460D
:100C9000006A40F0010008620AE04548006A20F05E
:100CA0000100434908620846006A20F00400086217
:100CB00000BFE068A0B1FFF771FC054609E0FFF74F
:100CC0006DFC401B41F28831884202D9032077E64F
:100CD00022E03748006A00F002000028EFD012E05E
:100CE000FFF75CFC054608E0FFF758FC401B41F2AB
:100CF0008831884201D9032062E62D48006A00F05D
:100D000002000028F0D1012F05D12948C06920F048
:100D100080502749C86100BFE069C8B324484068D3
:100D200000F00C00082860D0E069022848D10020BB
:100D300020490866FFF732FC054606E0FFF72EFC67
:100D4000401B022801D903203AE61948006800F048
:100D500000700028F2D1206AB0F5803F07D1144816
:100D6000406820F40030A168084311494860D4E984
:100D7000080108430E49496821F4741108430C49DD
:100D8000486001200B490866FFF708FC054607E0AC
:100D90003DE0FFF703FC401B022801D903200FE6CA
:100DA0000348006800F000700028F2D02FE0000037
:100DB00000100240000042428004424200700040A5
:100DC000002014490866FFF7E9FB054606E0FFF737
:100DD000E5FB401B022801D90320F1E50E4800681D
:100DE00000F000700028F2D111E0E069012800D184
:100DF000E6E50948466806F48031206A814204D15C
:100E000006F47011606A814201D00120D8E500200B
:100E1000D6E50000000042420010024070B50446D2
:100E20002546681EB0F1807F01D301200FE0681EC7
:100E30004FF0E02148610F214FF0FF3000F02CFD12
:100E400000204FF0E021886107200861002070BD7C
:100E5000704700002DE9F0470446206805682068C7
:100E6000C668206847694FF00008C14605F00F08C2
:100E7000B8F1000F0AD105F0200038B106F02000CB
:100E800020B1204600F068FBBDE8F087B8F1000F04
:100E90006DD007F0010018B906F49070002866D0F4
:100EA00005F0010030B106F4807018B1E06B40F03D
:100EB0000100E06305F0040030B107F0010018B153
:100EC000E06B40F00200E06305F0020030B107F093
:100ED000010018B1E06B40F00400E06305F0080089
:100EE00030B107F0010018B1E06B40F00800E0639A
:100EF000E06B68B305F0200028B106F0200010B1C7
:100F0000204600F029FB20684069C0F38019E06B9F
:100F100000F0080010B9B9F1000F22D0204600F00F
:100F2000FBFA2068406900F04000B0B120684069D9
:100F300020F0400021684861606B50B11748616B38
:100F40004863606BFFF72CF910B1606B416B884709
:100F50000CE02046FFF77CFF08E02046FFF778FF13
:100F600004E02046FFF774FF0020E0638CE705F003
:100F7000800030B106F0800018B1204600F010FC6F
:100F800082E705F0400030B106F0400018B120467D
:100F900000F0D2FA78E700BF76E7000005150008F8
:100FA00010B504460CB9012010BDA06900B100E0E5
:100FB00000BF94F8390028B9002084F83800204692
:100FC00000F028F8242084F839002068C06820F454
:100FD00000502168C860204600F012FB20680069BC
:100FE00020F49040216808612068406920F02A00C0
:100FF000216848612068C06840F400502168C860DA
:101000000020E063202084F8390084F83A000020B2
:10101000CAE7000010B586B0044600200290039095
:10102000049005901D492068884235D100BF1C48B6
:10103000C06940F400301A49C8610846C06900F42C
:101040000030019000BF00BF00BF0846806940F03B
:10105000040088610846806900F00400019000BF28
:1010600000BF04200290022003900320059002A9F3
:101070000C48FFF7FDF80820029000200390049030
:1010800002A90848FFF7F4F8002211462620FFF7CE
:101090000BFB2620FFF7F8FA06B010BD0044004015
:1010A000001002400008014010B5034693F83A00D2
:1010B00020282FD101B10AB9012010BD00BF93F83B
:1010C0003800012801D10220F7E7012083F8380019
:1010D00000BF99629A85DA850020D863222083F8C0
:1010E0003A0000BF002083F8380000BF1868C068CD
:1010F00040F480701C68E0601868406940F00100AE
:101100001C6860611868C06840F020001C68E060DE
:101110000020D2E70220D0E710B5044601221C4986
:101120001C48FFF7C1FF1A480938407A422809D005
:1011300017480938407A532804D015480938407AAE
:101140004F2809D1002005E000221149491C0A540A
:10115000411CC8B20A28F7DB0D480938407A0A2832
:101160000CD00B480938417A0B4802680068401CD3
:10117000094B18600648401C815407E004480938B0
:10118000407A0A2802D100200349086010BD0000FF
:101190006D010020240100200C0000202DE9F843FF
:1011A00004460D4616461F464FF0000994F83900D4
:1011B00020285CD105B116B90120BDE8F88300BF35
:1011C00094F83800012801D10220F6E7012084F8C4
:1011D000380000BF0020E063212084F83900FFF7C9
:1011E000DDF98146A684E6842BE0E08C401EE08495
:1011F000A068B0F5805F16D14B46002280212046C2
:10120000009700F001FB08B10320D6E7A846B8F824
:101210000000C0F3080021684860206908B9AD1CCF
:101220000FE06D1C0DE04B46002280212046009708
:1012300000F0EAFA08B10320BFE715F8010B2168B6
:101240004860E08C0028D0D14B4600224021204647
:10125000009700F0D9FA08B10320AEE7202084F807
:10126000390000BF002084F8380000BFA5E7022045
:10127000A3E7704700BFFEE700B585B000200190EE
:1012800002900390049000BF3A48806940F010003B
:10129000384988610846806900F01000009000BF5E
:1012A00000BF00BF0846806940F020008861084602
:1012B000806900F02000009000BF00BF00BF08461A
:1012C000806940F0040088610846806900F00400ED
:1012D000009000BF00BF00BF0846806940F00800D2
:1012E00088610846806900F00800009000BF00BFD8
:1012F00000224FF400512048FFF74AF94FF4005004
:10130000019001200290002003900220049001A986
:101310001948FEF7ADFF4FF44040019003200290C2
:1013200001A91548FEF7A4FF01200190134802907F
:101330000120039001A91248FEF79AFF49F6F270C6
:1013400001900320029001A90D48FEF791FF4FF68E
:10135000FF7001900320029001A90A48FEF788FF60
:10136000002211460620FFF79FF90620FFF78CF9AF
:1013700005B000BD00100240001001400000211027
:1013800000080140000C014010B50B480B490860F3
:101390004FF416504860002108488160C160016127
:1013A0000C21416100218161C161FFF7F9FD08B1A4
:1013B000FEF7F4FE10BD00000044004024010020B0
:1013C00000BFFEE77047704708B508490968C908BB
:1013D0004FF47A72B1FBF2F14143009100BF00BFBC
:1013E00000994A1E00920029F9D108BD1C00002076
:1013F000014600200A894B899A4205DA0A7A0832A6
:101400008B7AD21AD0B203E00A7A8B7AD21AD0B28F
:10141000704701464B895A1C4A81C85C4A89082A90
:1014200001DB00224A8170470B895A1C0A81C8548B
:101430000A89082A01DB00220A817047704710B52B
:10144000FFF7B2F810BD00B58FB0282105A8FEF750
:1014500070FE14216846FEF76CFE01200590000422
:101460000690002007900120099002200C90C103F3
:101470000D914FF4E0110E9105A8FFF79DFA08B108
:10148000FEF78CFE0F2000900220019000200290B9
:101490004FF4806003900020049002216846FFF71B
:1014A00055F908B1FEF77AFE0FB000BD114800688B
:1014B00040F001000F490860084640680E490840A6
:1014C0000C494860084600680C4908400949086012
:1014D0000846006820F4802008600846406820F430
:1014E000FE0048604FF41F008860C803044908608C
:1014F00070470000001002400000FFF8FFFFF6FEFA
:1015000008ED00E070B505466C6A0020E085E084D7
:101510002046FFF79DFC70BD0168C96821F49071F9
:101520000268D1600168496921F0010102685161D6
:10153000202180F83A10704710B504462068C06832
:1015400020F040002168C860202084F8390020463F
:10155000FFF78FFE002010BD70B5044694F83A00E6
:1015600022284AD1A068B0F5805F13D1A56A20690E
:1015700040B920684068C0F308002880A06A801C39
:10158000A06219E020684068C0B22880A06A401CB0
:10159000A06211E0206938B920684068C1B2A26A2F
:1015A000501CA062117007E02068406800F07F01C5
:1015B000A26A501CA0621170E08D401E80B2E085CE
:1015C000C8B92068C06820F020002168C860206881
:1015D000C06820F480702168C8602068406920F0ED
:1015E000010021684861202084F83A002046FFF776
:1015F00093FD002070BD0020FCE70220FAE7000008
:1016000070B504462168096921F44051E26811432C
:10161000226811612269A1681143626941EA0205E9
:101620002168C96841F20C62914329432268D16064
:101630002168496921F44071A2691143226851610E
:10164000564A2168914254D1FFF75CF900EBC00182
:1016500001EB001162689200B1FBF2F100EBC002F5
:1016600002EB001263689B00B2FBF3F26423B2FB4F
:10167000F3F202EBC20303EB0212A1EB820132226E
:1016800002EB01116422B1FBF2F101F0F00100EB79
:10169000C00202EB001263689B00B2FBF3F264230A
:1016A000B2FBF3F201EB021200EBC00101EB0011FF
:1016B00063689B00B1FBF3F100EBC00303EB001385
:1016C0006668B600B3FBF6F36426B3FBF6F303EBF0
:1016D000C30606EB0313A1EB8301322303EB0111D5
:1016E0006423B1FBF3F101F00F0111442268916012
:1016F00053E0FFF7F7F800EBC00101EB001162685F
:101700009200B1FBF2F100EBC00202EB0012636841
:101710009B00B2FBF3F26423B2FBF3F202EBC203D1
:1017200003EB0212A1EB8201322202EB01116422CF
:10173000B1FBF2F101F0F00100EBC00202EB00128C
:1017400063689B00B2FBF3F26423B2FBF3F201EB9C
:10175000021200EBC00101EB001163689B00B1FBBA
:10176000F3F100EBC00303EB00136668B600B3FBB4
:10177000F6F36426B3FBF6F303EBC30606EB0313A1
:10178000A1EB8301322303EB01116423B1FBF3F1DD
:1017900001F00F0111442268916070BD00380140D2
:1017A000014691F8390021282CD18868B0F5805F76
:1017B0000FD10A6A1088C0F308000B6858600869E6
:1017C00018B9086A801C086209E0086A401C0862AF
:1017D00005E00B6A581C086218780B685860C88CC2
:1017E000401E80B2C88458B90868C06820F08000E4
:1017F0000B68D8600868C06840F040000B68D8608B
:10180000002070470220FCE72DE9F04104460D4618
:1018100017469846069E21E0701CF8B12EB1FEF7DF
:10182000BDFEA0EB0800B04218D92068C06820F4C3
:10183000D0702168C8602068406920F001002168EC
:101840004861202084F8390084F83A0000BF002065
:1018500084F8380000BF0320BDE8F08120680068EC
:101860002840A84201D1012000E00020B842D3D096
:101870000020F1E710B50248FFF7ECFA10BD0000B8
:101880002401002000BFFEE702480068C0F30220E8
:10189000704700000CED00E010B5002804DB0A07DB
:1018A000130E054A135406E00A07140E034A00F00B
:1018B0000F031B1FD45410BD00E400E018ED00E03E
:1018C00002E008C8121F08C1002AFAD17047704709
:1018D000002001E001C1121F002AFBD17047000067
:1018E00042A14548FEF737FC44A143480F30FEF7BC
:1018F00032FC45484549886145484861FEF760FE2D
:10190000FFF7A1FDFFF7B8FCFFF73EFD01223F49BD
:1019100009314048FFF7C8FB0B203F4908603F48AA
:10192000FEF712FC3E4908600120384908703D4925
:101930000420FFF779FD3B490520FFF775FD394984
:101940000F20FFF771FD37490D20FFF76DFD35487A
:10195000FFF74EFD344908700846007820B1314841
:10196000FFF757FD294908702E48FFF741FD2E4922
:1019700008702C48FFF74DFD244908702948FFF7EF
:1019800037FD294908702748FFF743FD1F490870B4
:101990002448FFF72DFD244908702248FFF739FD40
:1019A0001A4908701F48FFF723FD1F4908701BE004
:1019B00016480078C0B115490978C1EB0111174AE2
:1019C0000F3A8818FEF7C0FB84B210480078C0EBCD
:1019D0000010124A0F3A8118642322460D48FFF77F
:1019E000DDFB002009490870E2E70000434F4D2B62
:1019F00050574F530D0A00002F000020434F4D2B2E
:101A0000505744530D0A000080010020640100205B
:101A10009001002024010020000000203B1A000853
:101A200004000020B8010020080000200000000091
:101A30000000000000000000000000434F4D2B504C
:101A4000574F530D0A0000000000434F4D2B5057D5
:101A500044530D0A0000000000434F4D2B524542F5
:101A60004F4F540D0A000000434F4D2B56500D0AA6
:101A700000000000000000434F4D2B56440D0A00AB
:101A8000000000000000434F4D2B47560D0A000098
:101A90000000000000434F4D2B4D42540D0A000042
:101AA00000000000434F4D2B49510D0A000000007B
:101AB00000000042542B50520D0A000000000000AC
:101AC000000042542B41430D0A00000000000000BA
:101AD0000042542B44430D0A0000000000000000A7
:101AE00042542B43410D0A00000000000000004258
:101AF000542B434A0D0A000000000000000042542D
:101B00002B43450D0A000000000000000042542B4A
:101B100043520D0A00000000000000000000000019
:101B2000000000000102030406070809000000008D
:101B300001020304541B00080000002020000000E4
:101B4000C0180008741B000820000020A805000031
:101B5000D01800080000000000000000000600008F
:101B60000000000000000000100000000100000064
:041B70000024F40059
:04000005080000ED02
:00000001FF
