:020000040800F2
:10000000400A002001010008052B0008DB2700083A
:10001000012B000881020008833200080000000064
:10002000000000000000000000000000893000080F
:1000300001030008000000007B2B00088B30000843
:100040001B0100081B0100081B010008012D00080E
:100050001B0100081B010008030300081B01000826
:100060001B0100081B0100081B0100081B01000800
:100070001B0100081B0100081B0100081B010008F0
:100080001B0100081B010008990100081B01000862
:100090001B0100081B0100081B0100080D030008DC
:1000A0001B0100081B0100081B0100081B010008C0
:1000B0001B0100081B0100087D3100081B0100081E
:1000C0001B0100081B0100081B0100081B010008A0
:1000D0001B0100081B0100081B0100081B01000890
:1000E0001B0100081B0100081B010008DFF80CD0F1
:1000F00000F040F8004800471D360008400A002084
:100100000648804706480047FEE7FEE7FEE7FEE7B1
:10011000FEE7FEE7FEE7FEE7FEE7FEE72531000823
:10012000ED000008D2B201E000F8012B491EFBD21D
:1001300070470022F6E710B513460A4604461946F2
:10014000FFF7F0FF204610BD30B50B4601460020FA
:100150002022012409E021FA02F59D4205D303FA89
:1001600002F5491B04FA02F52844151EA2F101020A
:10017000F1DC30BD064C074D06E0E06840F00103BD
:1001800094E8070098471034AC42F6D3FFF7B2FF6B
:10019000F8690008186A000810B5024800F084F9F0
:1001A00010BD0000B404002070B50446002520688E
:1001B000806800F00100F0B12068806820F0010044
:1001C0002168886000F074FD05460EE000F070FDC7
:1001D000401B022809D9A06A40F01000A062E06A22
:1001E00040F00100E062012070BD2068806800F0EE
:1001F00001000028EAD10020F6E7000038B50446E7
:100200000025002000902068806800F0010080BB7D
:100210002068806840F00100216888601648006806
:100220001649B0FBF1F0009002E00098401E0090EB
:1002300000980028F9D100F03BFD054613E000F0DE
:1002400037FD401B02280ED9A06A40F01000A062C2
:10025000E06A40F00100E06200BF002084F8240062
:1002600000BF012038BD2068806800F00100002830
:10027000E5D00020F6E700009000002040420F008B
:1002800000BFFEE71048006820F080700E4908604B
:100290000846006840F0807008600C48006820F054
:1002A00001000A4908600846006840F00100086043
:1002B0000020486000BF00BF00BF0448406808B18C
:1002C000002070470120FCE7FCED00E0001000E09A
:1002D00031B50948446801F019F80849B0FBF1F05C
:1002E00000994843009000BF03484068001B0099F4
:1002F0008842F9D338BD0000001000E040420F00F2
:10030000704710B5012000F029FB10BD10B54FF467
:10031000807000F023FB10BD00BFFEE770470000B7
:1003200038B5024600230020009000BF92F8240058
:10033000012801D1022038BD012082F8240000BF2D
:100340004868072812D21068406B0C79641E04EBD1
:1003500084051F24AC40A0430D796D1E05EB850577
:100360000C68AC4020431468606327E048680D289F
:1003700012D21068006B0C79E41F04EB84051F2473
:10038000AC40A0430D79ED1F05EB85050C68AC4032
:1003900020431468206311E01068C06A0C790D3C9A
:1003A00004EB84051F24AC40A0430D790D3D05EB03
:1003B00085050C68AC4020431468E06208680A2890
:1003C00012D31068C0680C780A3C04EB440507247B
:1003D000AC40A0430D780A3D05EB45058C68AC4068
:1003E00020431468E0600FE0106800690C7804EBAB
:1003F00044050724AC40A0430D7805EB45058C6807
:10040000AC402043146820610868102802D00868B6
:10041000112827D1174C1068A0421ED1106880689F
:1004200000F40000F0B91068806840F4000014681F
:10043000A0600868102815D10F4800680F4CB0FB69
:10044000F4F000EB80004000009002E00098401EB5
:10045000009000980028F9D104E0906A40F0200054
:100460009062012300BF002082F8240000BF1846DC
:1004700061E70000002401409000002040420F008E
:1004800010B50446204600F00BF80349086001202F
:100490000249887010BD00003C00002027000020A9
:1004A00001460868C06C704710B504462068406873
:1004B00000F0200020282FD12068006800F0020002
:1004C000022829D1A06A00F0100018B9A06A40F4EF
:1004D0000070A0622068806800F46020B0F5602F92
:1004E00013D1E06888B92068406820F020002168B6
:1004F0004860A06A20F48070A062A06A00F4805076
:1005000018B9A06A40F00100A0622046FFF7B8FFCA
:100510006FF01200216808602068406800F08000D9
:1005200080283BD12068006800F00400042835D101
:10053000A06A00F0100018B9A06A40F40050A06250
:100540002068806800F4E040B0F5E04F0DD02068EE
:10055000406800F48060D0B92068806800F46020B2
:10056000B0F5602F13D1E06888B92068406820F0AA
:10057000800021684860A06A20F48050A062A06AD0
:1005800000F4807018B9A06A40F00100A062204613
:10059000FFF7C4FE6FF00C00216808602068406817
:1005A00000F0400040280FD12068006800F00100F2
:1005B00050B1A06A40F48030A062204600F0A8F854
:1005C0006FF001002168086010BD00002DE9F041C6
:1005D0000446002700250026A84614B90120BDE8DE
:1005E000F081A06810B1606900B100BFA06A30B9A5
:1005F0000020E06284F82400204600F08BF82046BA
:10060000FFF7D2FD0746A06A00F01000002873D162
:10061000002F71D1A06A20F4885040F00200A0623F
:10062000E16960680843E16840EA41000643A06868
:10063000B0F5807F02D0A068012802D14FF480700D
:1006400000E0002005436069012811D1E06838B955
:10065000A069401E4FF4006141EA4030054307E0C5
:10066000A06A40F02000A062E06A40F00100E06271
:100670002068406820F46940284321684860206869
:10068000806821490840304321688860A068B0F53F
:10069000807F02D0A068012802D14FF4807000E072
:1006A0000020B0F5807F03D1208A401E4FEA005819
:1006B0002068C06A20F4700040EA08002168C8621F
:1006C0002068806811490840B04208D10020E062EB
:1006D000A06A20F0020040F00100A06211E0A06AD0
:1006E00020F0020040F01000A062E06A40F001003B
:1006F000E062012705E0FFE7A06A40F01000A06279
:10070000012738466BE70000FDF7E1FFFE0E1FFFF3
:100710007047000010B586B0044600200290039098
:10072000049005901849206888422AD100BF1748D4
:10073000806940F48060154988610846806900F44A
:100740008060019000BF00BF00BF0846806940F094
:10075000040088610846806900F00400019000BF31
:1007600000BF022002900320039002A9084800F075
:1007700003F900221146122000F02BFB122000F09A
:100780001BFB06B010BD0000002801400010024015
:100790000008014070B50446002500BF94F824000D
:1007A000012801D1022070BD012084F8240000BF7F
:1007B0002046FFF723FD0546002D7DD1A06A40F6B7
:1007C0000161884340F48070A0623F4920688842FC
:1007D00008D13E48006800F4702008B9012002E00A
:1007E000002000E0012078B1A06A20F48010A0620F
:1007F0002068406800F4806000B3A06A20F40050D4
:1008000040F48050A06219E0A06A40F48010A06219
:100810002E49091F2068884203D02B49206888424E
:1008200004D12A48006800F4806000E0002028B16C
:10083000A06A20F4005040F48050A062A06A00F446
:10084000805020B1E06A20F00600E06201E0002064
:10085000E06200BF002084F8240000BFC01E2168B1
:1008600008602068406840F02000216848602068E7
:10087000806800F46020B0F5602F16D1124920681E
:10088000884208D11148006800F4702008B901209E
:1008900002E0002000E0012038B12068806840F4C8
:1008A000A000216888600CE006E02068806840F4C1
:1008B00080102168886004E000BF002084F82400D4
:1008C00000BF28466FE700000028014004240140D3
:1008D0000348406840F0020001494860704700004A
:1008E000002004E070B5044600F0E2F90646254613
:1008F000681C10B104480078054400BF00F0D8F926
:10090000801BA842FAD370BD8C00002001281CD1A6
:100910000E490978282904DA0C490978491C0B4A40
:1009200011700B49097841B90121094A1170002160
:10093000084A1170054A117007E005490978022933
:1009400003D14FF41671044A118070472000002033
:1009500024000020250000202200002010B50446BD
:1009600004480068204020B1024804602046FFF798
:10097000CDFF10BD140401402DE9F84703460024C3
:10098000002000258446002700226EE14FF0010878
:1009900008FA02F4D1F8008008EA0400A0427DD1F0
:1009A000DFF8D0A2D1F80480A8EB0A09D0453AD0EC
:1009B00014DCB8F1030F50D009DCB8F1000F31D0CE
:1009C000B8F1010F1CD0B8F1020F49D120E0B8F105
:1009D000110F18D0B8F1120F42D11EE0B9F5881FDF
:1009E00025D006DCB9F5803F20D0B9F5801F37D17E
:1009F0001AE0B9F5001F18D0B9F5041F30D117E07F
:100A0000D1F80CC02DE0D1F80C8008F1040C28E0DE
:100A1000D1F80C8008F1080C23E0D1F80C8008F123
:100A20000C0C1EE000BF00BF00BF00BF00BF00BF36
:100A3000D1F80880B8F1000F02D14FF0040C0BE0A0
:100A4000D1F80880B8F1010F03D14FF0080C1C61F8
:100A500002E04FF0080C5C6103E04FF0000C00E096
:100A600000BF00BFFF2801D8984601E003F1040849
:100A70004646FF2802D84FEA820803E0A2F10808A0
:100A80004FEA88084746D6F800804FF00F0909FA68
:100A900007F928EA09080CFA07F900E088E048EAB3
:100AA0000908C6F80080D1F8048008F08058B8F131
:100AB000805F7DD100BFDFF8C081D8F8188048F092
:100AC0000108DFF8B491C9F81880C846D8F8188032
:100AD00008F00108CDF8008000BF00BF4FEAB93828
:100AE0004FEA920958F829504FEA82784FEA18796C
:100AF0004FF00F0808FA09F825EA0805DFF87C81AD
:100B0000434502D14FF0000816E0DFF874814345F9
:100B100002D14FF001080FE0DFF86881434502D1B0
:100B20004FF0020808E0DFF86081434502D14FF042
:100B3000030801E04FF004084FEA82794FEA19797F
:100B400008FA09F848EA0505DFF840814FEA9209FA
:100B500048F82950D1F8048008F48038B8F5803F6F
:100B60000AD1DFF82C81D8F8008048EA0008DFF8C5
:100B70002091C9F8008009E0DFF81481D8F80080DE
:100B800028EA0008DFF80891C9F80080D1F804804D
:100B900008F40038B8F5003F10D1DFF8F48008F110
:100BA0000408D8F8008048EA0008DFF8E49000E084
:100BB0005AE009F10409C9F800800DE0DFF8D0809F
:100BC00008F10408D8F8008028EA0008DFF8C0908F
:100BD00009F10409C9F80080D1F8048008F48018EC
:100BE000B8F5801F0ED1DFF8A88008F10808D8F802
:100BF000008048EA0008DFF8989009F10809C9F870
:100C000000800DE0DFF8888008F10808D8F800803F
:100C100028EA0008DFF8789009F10809C9F800808F
:100C2000D1F8048008F40018B8F5001F0ED1DFF8E1
:100C3000608008F10C08D8F8008048EA0008DFF866
:100C4000509009F10C09C9F800800DE0DFF84080F0
:100C500008F10C08D8F8008028EA0008DFF8309086
:100C600009F10C09C9F80080521C102AFFF48EAE5D
:100C7000BDE8F88700001110001002400008014094
:100C8000000C014000100140001401400800014028
:100C900000040140024693680B400BB1012000E0C4
:100CA000002070470AB1016101E00B040361704745
:100CB0000148006870470000840000200348006875
:100CC00003490978084401490860704784000020FE
:100CD0008C00002010B50848006840F0100006495C
:100CE0000860032000F0B4F8002000F007F800F0DE
:100CF0002BF8002010BD00000020024070B5044613
:100D00000E4800784FF47A71B1FBF0F00C49096895
:100D1000B1FBF0F5284601F04BFB08B1012070BD96
:100D2000102C07D200222146501E00F052F8054830
:100D3000046001E00120F2E70020F0E78C000020D1
:100D4000900000208800002008B500BF114880698D
:100D500040F001000F4988610846806900F00100F9
:100D6000009000BF00BF00BF0846C06940F080503F
:100D7000C8610846C06900F08050009000BF00BF05
:100D800000BF0549486820F0E06040F0007048600E
:100D900000BF08BD001002400000014000BF00F08D
:100DA0001F0201219140034A430942F8231000BF6A
:100DB0007047000080E100E000BF00F01F02012149
:100DC00091404209920002F1E022C2F8001100BFF6
:100DD00070472DE9F05F80460D461646002701F06A
:100DE0009DFE074639462A46334601F00700C0F10A
:100DF000070ABAF1040F02D94FF0040A01E0C0F16A
:100E0000070AD14600F1040ABAF1070F02D24FF0E7
:100E1000000A01E0A0F1030AD4464FF0010A0AFAE1
:100E200009FAAAF1010A0AEA020A0AFA0CFA4FF0D0
:100E3000010B0BFA0CFBABF1010B0BEA030B4AEABB
:100E40000B042146404601F071FEBDE8F09F000012
:100E500000BF00F00702064B19684FF6FF03194068
:100E6000044B0B4343EA0221014B196000BF70475A
:100E70000CED00E00000FA050348006820F00200D5
:100E8000014908607047000010ED00E001200149B1
:100E90000862704700000E4270B504460D461148C6
:100EA000006820F002000F4908600846006820F042
:100EB0000100204308600C48006840F004000A4923
:100EC0000860012D01D130BF04E040BF01F052FEA7
:100ED00001F050FE0448006820F004000249086058
:100EE00070BD00000070004010ED00E02DE9F043FF
:100EF00085B006463DA30FCB01AC0FC43FA00068F0
:100F000000904FF00008002500270024A146012E84
:100F100030D0022E58D0102E61D139484468006874
:100F200000F0807000B301A8C4F38341475C04F46F
:100F3000803070B132484068C0F340401DF80080F6
:100F400004F4803040B12F48B0FBF8F000FB07F507
:100F500002E02D4807FB00F52948406800F48000B6
:100F6000B0F5800F01D1A94603E068000321B0FB72
:100F7000F1F935E02248046A04F44070B0F5807F4E
:100F800005D104F0020010B14FF400491BE004F455
:100F90004070B0F5007F07D11948406A00F00200A8
:100FA00010B149F640490EE004F44070B0F5407FBE
:100FB00007D11348006800F4003010B14FF2244903
:100FC00001E04FF000090BE000F0A6F90C49496878
:100FD000C1F38131491C4900B0FBF1F900E000BFC9
:100FE00000BF484605B0BDE8F083000002030405D9
:100FF000060708090A0B0C0D0E0F10100102000065
:101000000010024000127A0000093D00F8B50446C5
:1010100000260025207800F0010000286BD0002772
:101020004348C06900F0805070B900BF4048C069B3
:1010300040F080503E49C8610846C06900F08050C9
:10104000009000BF00BF01273A48006800F480709C
:10105000B0B93848006840F4807036490860FFF73E
:1010600027FE064606E0FFF723FE801B642801D911
:101070000320F8BD2F48006800F480700028F2D0EB
:101080002B48006A00F440752DB3A08800F440702E
:10109000A84220D02648006A20F440750120264945
:1010A0000860002008602248056205F0010090B148
:1010B000FFF7FEFD064608E0FFF7FAFD801B41F250
:1010C0008831884201D90320D3E71948006A00F02B
:1010D00002000028F0D01648006A20F440706168D1
:1010E000084313490862012F04D10846C06920F063
:1010F0008050C86100BF207800F00200022807D1AC
:101100000B48406820F44040A16808430849486003
:10111000207800F01000102807D10548406820F41E
:101120008000E1680843024948600020A1E7000010
:1011300000100240007000404004424270B5044676
:101140000D4600266D48006800F00700A8420ED248
:101150006A48006820F0070028436849086008468C
:10116000006800F00700A84201D0012070BD20787F
:1011700000F0020002281DD1207800F004000428AD
:1011800005D15F48406840F4E0605D4948602078E0
:1011900000F00800082805D15948406840F4605024
:1011A000574948605648406820F0F000A16808435D
:1011B00053494860207800F0010000285DD0606845
:1011C000012806D14E48006800F4003090B9012093
:1011D000CCE76068022806D14948006800F000703A
:1011E00040B90120C2E74648006800F0020008B993
:1011F0000120BBE74248406820F0030061680843D3
:101200003F494860FFF754FD06466068012810D149
:1012100008E0FFF74DFD801B41F28831884201D97B
:101220000320A3E73648406800F00C000428F0D102
:1012300023E06068022810D108E0FFF739FD801B29
:1012400041F28831884201D903208FE72C48406859
:1012500000F00C000828F0D10FE008E0FFF728FDAF
:10126000801B41F28831884201D903207EE724485F
:10127000406800F00C000028F0D12048006800F021
:101280000700A8420ED91D48006820F00700284337
:101290001A4908600846006800F00700A84201D01B
:1012A000012063E7207800F00400042807D11448E7
:1012B000406820F4E060E168084311494860207804
:1012C00000F00800082808D10D48406820F460505C
:1012D000216940EAC1000A49486000F02DF8084938
:1012E0004968C1F30311074A515CC84006490860C8
:1012F0000020FFF703FD002038E700000020024037
:1013000000100240E06900089000002001480068D9
:10131000704700009000002000B5FFF7F7FF044978
:101320004968C1F3C221034A515CC84000BD0000B6
:1013300000100240F0690008F0B585B00FF26C0CA7
:101340009CE8E01001A8A0E8E0101CA52D6800951D
:1013500000210022002300240020194D696801F0BB
:101360000C05F5B1042D02D0082D19D101E0154866
:1013700019E001ADC1F38346AC5D01F4803555B190
:101380000F4D6D68C5F340451DF805200D4D6543B3
:10139000B5FBF2F302E00C4D04FB05F3184602E046
:1013A00000BF084800BF00BF05B0F0BD0203040540
:1013B000060708090A0B0C0D0E0F101001020000A1
:1013C0000010024000127A0000093D00F8B5044602
:1013D0000025207800F00100002878D0F848406807
:1013E00000F00C0004280CD0F548406800F00C0018
:1013F000082811D1F248406800F48030B0F5803FF1
:101400000AD1EF48006800F4003000285FD060681F
:1014100000285CD10120F8BD00BF6068B0F5803FB6
:1014200006D1E748006840F48030E549086028E0CC
:10143000606858B9E248006820F48030E0490860EC
:101440000846006820F4802008601AE06068B0F563
:10145000A02F0BD1DA48006840F48020D8490860FA
:101460000846006840F4803008600AE0D44800680C
:1014700020F48030D24908600846006820F48020BB
:10148000086000BF606888B1FFF712FC054606E0FF
:10149000FFF70EFC401B642801D90320BBE7C848B6
:1014A000006800F400300028F2D010E0FFF700FCE4
:1014B000054606E0FFF7FCFB401B642801D903202A
:1014C000A9E7BF48006800F400300028F2D1207876
:1014D00000F00200022857D1B948406800F00C0023
:1014E00050B1B748406800F00C00082818D1B44843
:1014F000406800F4803098B9B148006800F00200FC
:1015000020B12069012801D0012084E7AC4800689F
:1015100020F0F800616940EAC100A949086033E0A1
:101520002069E8B10120A7490860FFF7C1FB054623
:1015300006E0FFF7BDFB401B022801D903206AE744
:101540009F48006800F002000028F2D09C48006824
:1015500020F0F800616940EAC1009949086013E091
:10156000002098490860FFF7A3FB054606E0FFF757
:101570009FFB401B022801D903204CE790480068DC
:1015800000F002000028F2D1207800F008000828BE
:101590002DD1A069B8B101208B490860FFF788FB05
:1015A000054606E0FFF784FB401B022801D9032013
:1015B00031E78348406A00F002000028F2D00120A1
:1015C00001F0DCFA13E000207F490860FFF770FBB0
:1015D000054606E0FFF76CFB401B022801D90320FB
:1015E00019E77748406A00F002000028F2D120781D
:1015F00000F00400042873D100267148C06900F08F
:10160000805070B900BF6E48C06940F080506C498E
:10161000C8610846C06900F08050009000BF00BF5C
:1016200001266A48006800F48070B0B96748006815
:1016300040F4807065490860FFF73AFB054606E014
:10164000FFF736FB401B642801D90320E3E65F481F
:10165000006800F480700028F2D000BFE068012824
:1016600006D15748006A40F001005549086227E05A
:10167000E06858B95248006A20F0010050490862F9
:101680000846006A20F00400086219E0E0680528B6
:101690000BD14B48006A40F00400494908620846F3
:1016A000006A40F0010008620AE04548006A20F044
:1016B0000100434908620846006A20F004000862FD
:1016C00000BFE068A0B1FFF7F3FA054609E0FFF7B5
:1016D000EFFA401B41F28831884202D903209AE692
:1016E00022E03748006A00F002000028EFD012E044
:1016F000FFF7DEFA054608E0FFF7DAFA401B41F291
:101700008831884201D9032085E62D48006A00F01F
:1017100002000028F0D1012E05D12948C06920F02F
:1017200080502749C86100BFE069C8B324484068B9
:1017300000F00C00082860D0E069022848D10020A1
:1017400020490866FFF7B4FA054606E0FFF7B0FA4D
:10175000401B022801D903205DE61948006800F00B
:1017600000700028F2D1206AB0F5803F07D11448FC
:10177000406820F40030A168084311494860D4E96A
:10178000080108430E49496821F4741108430C49C3
:10179000486001200B490866FFF78AFA054607E012
:1017A0002DE0FFF785FA401B022801D9032032E61D
:1017B0000348006800F000700028F2D01FE000002D
:1017C000001002400000424280044242007000408B
:1017D00000200C490866FFF76BFA054606E0FFF7A4
:1017E00067FA401B022801D9032014E60648006866
:1017F00000F000700028F2D101E001200BE600208B
:1018000009E6000000004242001002402449097825
:1018100051B124490988B1F5967F05DA2149098833
:10182000491C204A11800EE01D49097859B11D4913
:101830000988B1F5967F06DB0021194A11704FF433
:101840001671194A118019490978491CC9B2174AF9
:101850001170FF2901DD002111701149097879B952
:101860001349097802290BD10F49098829B10E497A
:101870000988491E0C4A118002E000210D4A1170AE
:101880000D4909880D4A118000210B4A11800C492D
:1018900009880C4A11800021094A11807047000014
:1018A0007800002054000020220000208200002048
:1018B00024000020260000203600002038000020F0
:1018C0002A0000202C000020704710B50446206834
:1018D000006800F00100E0B12068406800F00100FD
:1018E000B8B120684068C0F3800048B12046FFF7D7
:1018F000EBFF6FF00400216848600420607404E08E
:101900002046FFF783FF012060746FF0010021681B
:10191000486010BD014609B90120704700BF087C2E
:10192000012801D10220F8E70120087400BF02203D
:1019300048740868006840F001000A6810600120DF
:10194000487400BF0020087400BF00BFE5E710B571
:1019500004460CB9012010BD02206074204601F03D
:1019600094F938B10420607400BF0020207400BFD7
:101970000120F0E700202168C861216888614FF4E8
:1019800000402168C86000202168886021680860E4
:1019900021684860204601F095F938B10420607450
:1019A00000BF0020207400BF0120D4E7204600F0D3
:1019B00047FA2068406820F0080021684860204607
:1019C00000F01AF90020607400BF207400BF00BF4F
:1019D000C1E7F8B505460C4616460020009005B153
:1019E0000CB90120F8BD00226946284600F01AF81B
:1019F00008B10120F6E7287B2070E87BE070687B67
:101A00006070A87BA0705EB1E07801F0D6F8E0705D
:101A1000607801F0D2F86070A07801F0CEF8A07084
:101A20000020DFE72DE9F04780460C46914600256F
:101A30000026AA460027B8F1000F00D014B90120F3
:101A4000BDE8F087D8F800004068C0F3800008B116
:101A50000120F5E7404601F080F905464FF461604A
:101A6000B5FBF0F7B5FBF0F100FB11503C21B0FBEA
:101A7000F1F060704FF46160B5FBF0F100FB1150C4
:101A80003C21B0FBF1F201FB1200A070182F39D3FA
:101A90001820B7FBF0FAB7FBF0F100FB11702070D3
:101AA000404601F04EF90646701C18B1AE4201D90D
:101AB000761B01E04FF0FF360AEB4A00C000C0EB96
:101AC0004011C1EB0020A5EB00152946404601F06E
:101AD000B7F908B10120B3E7701C38B12E44314684
:101AE000404601F096F940B10120A9E73146404651
:101AF00001F08FF908B10120A2E75146404601F0FC
:101B000069F800E02770B9F1000F0BD0207801F0E0
:101B100054F82070607801F050F86070A07801F0FF
:101B20004CF8A07000208BE770B5044600250CB976
:101B3000012070BD607C20B900202074204600F098
:101B40006DF802206074204600F07AF918B1042084
:101B500060740120EDE7204601F097F818B10420E9
:101B600060740120E5E72068406820F007002168E4
:101B70004860A06828B11F48006820F001001D4996
:101B800008601C48001F006820F46070A1680843CA
:101B90001849091F08606068401C08B1656809E0C1
:101BA0000120FFF7A3F905461DB904206074012048
:101BB000BFE76D1E2068806820F00F0040EA1540E6
:101BC000216888602068C06865F30F002168C860DC
:101BD000204601F077F818B1042060740120A8E7CE
:101BE0000021E17301216173A17301206074002061
:101BF0009FE70000306C004010B50446054920689E
:101C0000884205D10020044908600320FFF7C6F888
:101C100010BD0000002800403C04424238B5044694
:101C20000F49206888421AD1FFF730F900BF0D48EC
:101C3000C06940F000600B49C8610846C06900F007
:101C40000060009000BF00BF01200749086000222B
:101C500011460320FFF7BDF80320FFF7ADF838BDAC
:101C600000280040001002403C0442422DE9F047A9
:101C700004460D46904600260027B14604B115B92A
:101C80000120BDE8F08700BF207C012801D102209F
:101C9000F7E70120207400BF02206074B8F1000F44
:101CA00006D1E978E17369786173A978A1730BE0D3
:101CB000E87800F077FFE073687800F073FF6073F6
:101CC000A87800F06FFFA073A27B617BE07B01F03E
:101CD0005EF82073207B2870204601F03EF806460F
:101CE0004FF46160B6FBF0F9B9F1180F2FD9182045
:101CF000B9FBF0F000EB4000C000C0EB4011C1EBBD
:101D00000020A6EB00163146204601F099F838B1C4
:101D10000420607400BF0020207400BF0120B0E7E1
:101D2000204601F00EF80746781C80B1B7420ED26B
:101D30000B4807443946204601F06BF838B10420BF
:101D4000607400BF0020207400BF012099E70120CB
:101D5000607400BF0020207400BF00BF91E7000046
:101D6000805101002DE9F04704460D4690460026BB
:101D7000002704B115B90120BDE8F08700BF207C21
:101D8000012801D10220F7E70120207400BF0220C2
:101D90006074B8F1000F0BD128784FF461614843AB
:101DA0006978C1EB011100EB8100A978461812E0B7
:101DB000287800F0F7FE4FF4616100FB01F96878C4
:101DC00000F0F0FEC0EB001009EB8009A87800F0ED
:101DD000E9FE09EB00063146204601F031F838B142
:101DE0000420607400BF0020207400BF0120C3E7FE
:101DF0002068406820F0050021684860204600F017
:101E0000A0FF0746781C80B1B7420ED20B480744AA
:101E10003946204600F0FDFF38B10420607400BF51
:101E20000020207400BF0120A6E70120607400BFDD
:101E30000020207400BF00BF9EE700008051010019
:101E400070B5044600250CB9012070BD20684068BB
:101E500020F0080021684860FEF72AFF054607E0E9
:101E6000FEF726FF401BB0F57A7F01D90320ECE78F
:101E70002068406800F008000028F1D00020E4E766
:101E800010B504460CB9012010BD0021A16294F8E0
:101E9000510010B9204600F037F8022084F85100B4
:101EA0002068006820F0400021680860D4E9010142
:101EB0000843E16808432169084361690843218BAD
:101EC00001F400710843E1690843216A0843A16AEB
:101ED0000843216808600421A06901EA1040616A92
:101EE0000843216848602168E06A08612068C06989
:101EF00020F400602168C86100206065012084F83A
:101F000051000020C0E7000010B586B00446002054
:101F100002900390049005902F49206888422ED1AA
:101F200000BF2E48806940F480502C4988610846E3
:101F3000806900F48050019000BF00BF00BF0846D8
:101F4000806940F0040088610846806900F0040060
:101F5000019000BF00BFA020029002200390032048
:101F6000059002A91E48FEF707FD402002900020C0
:101F70000390049002A91A48FEF7FEFC29E01949D3
:101F80002068884225D100BF1448C06940F48040D1
:101F90001249C8610846C06900F48040019000BF42
:101FA00000BF00BF0846806940F00800886108460D
:101FB000806900F00800019000BF00BF4FF420408E
:101FC0000290022003900320059002A90648FEF724
:101FD000D3FC06B010BD00000030014000100240EC
:101FE0000008014000380040000C01402DE9F84392
:101FF00004460D4617461E464FF00008C14600BF76
:1020000094F85000012802D10220BDE8F883012095
:1020100084F8500000BFFEF74BFE804694F8510054
:10202000012802D04FF00209A9E005B117B94FF01D
:102030000109A4E0032084F85100002060652563B5
:10204000A786E786A063A087E08760642064A06815
:10205000B0F5004F05D12068006840F48040216849
:1020600008602068006800F04000402805D0206823
:10207000006840F0400021680860E068B0F5006F3B
:102080002AD1606810B1E08E012806D12888216825
:10209000C860AD1CE08E401EE08619E020688068B4
:1020A00000F00200022807D128882168C860AD1C12
:1020B000E08E401EE0860BE03EB1701C40B1FEF7A2
:1020C000F7FDA0EB0800B04202D34FF0030956E041
:1020D000E08E0028E2D129E0606810B1E08E01288E
:1020E00006D12878216808736D1CE08E401EE086BA
:1020F00019E02068806800F00200022807D12878E3
:10210000216808736D1CE08E401EE0860BE03EB136
:10211000701C40B1FEF7CCFDA0EB0800B04202D32A
:102120004FF003092BE0E08E0028E2D13346012274
:1021300002212046CDF8008000F012FF10B14FF0D0
:1021400003091CE042463146204600F0A9FE20B1BA
:102150004FF001092020606511E0A06850B900BF70
:10216000002000902068C06800902068806800907F
:1021700000BF00BF606D08B14FF0010900BF012032
:1021800084F8510000BF002084F8500000BF48468A
:102190003BE72DE9FE4F04460D4616461F46DDF887
:1021A00030804FF0000A0020029081464FF0010B72
:1021B000019000BF94F85000012802D10220BDE830
:1021C000FE8F012084F8500000BFFEF771FD8146AC
:1021D00094F851A060680290BAF1010F0BD00298F8
:1021E000B0F5827F04D1A06810B9BAF1040F02D013
:1021F00002200190D2E00DB106B117B90120019083
:10220000CCE094F85100012802D1052084F8510057
:1022100000206065A663E787A7872563E786A78612
:10222000206460642068006800F04000402805D009
:102230002068006840F0400021680860E068B0F560
:10224000006F43D1606810B1E08E012806D1288864
:102250002168C860AD1CE08E401EE0862FE0BBF117
:10226000000F10D0E08E70B12068806800F002008E
:10227000022808D128882168C860AD1CE08E401E65
:10228000E0864FF0000BE08F68B12068806800F0B6
:10229000010040B12068C0683080B61CE08F401E4D
:1022A000E0874FF0010B08F1010040B1FEF700FD9F
:1022B000A0EB0900404502D3032001906EE0E08EC0
:1022C0000028CCD1E08F0028C9D142E0606810B16D
:1022D000E08E012806D12878216808736D1CE08EF5
:1022E000401EE0862FE0BBF1000F10D0E08E70B1F1
:1022F0002068806800F00200022808D115F8010B60
:1023000021680873E08E401EE0864FF0000BE08FDE
:1023100068B12068806800F0010040B12068C068A2
:1023200006F8010BE08F401EE0874FF0010B08F12B
:10233000010040B1FEF7BCFCA0EB0900404502D310
:10234000032001902AE0E08E0028CCD1E08F002805
:10235000C9D14346012202212046CDF8009000F069
:10236000FFFD10B10320019018E04A464146204687
:1023700000F096FD20B101200190202060650DE065
:10238000A06850B900BF002000902068C06800908D
:1023900020688068009000BF00BF00BF012084F863
:1023A000510000BF002084F8500000BF019806E7EC
:1023B00070B504462546681EB0F1807F01D3012028
:1023C0000FE0681E4FF0E02148610F214FF0FF3011
:1023D00000F0ACFB00204FF0E0218861072008618D
:1023E000002070BD70477047024600BF92F83C0065
:1023F000012801D102207047012082F83C0000BF73
:10240000022082F83D001068406820F070001368D8
:102410005860106840680B6818431368586010686B
:10242000806820F0800013689860106880684B68AE
:10243000184313689860012082F83D0000BF002017
:1024400082F83C0000BF00BFD5E710B504460CB9C8
:10245000012010BD94F83D0028B9002084F83C000C
:10246000204600F00DF8022084F83D00211D206870
:1024700000F08CFE012084F83D000020E9E7000018
:1024800038B504460D492068884215D100BF0C4874
:10249000C06940F004000A49C8610846C06900F0FC
:1024A0000400009000BF00BF002211461E20FEF76E
:1024B00090FC1E20FEF780FC38BD000000080040A4
:1024C0000010024001460868C06840F001000A6838
:1024D000D0600868006840F001000A6810600020C1
:1024E00070472DE9F04104460D46002600BF94F8E0
:1024F0003C00012802D10220BDE8F081012084F8CF
:102500003C0000BF022084F83D002068866826F069
:10251000770626F47F4620688660286850283BD0DE
:102520000CDC202860D004DC002853D0102865D1B2
:1025300055E030285DD0402860D141E0602835D09A
:1025400070280DD0B0F5805F03D0B0F5005F55D195
:1025500015E02068806820F00700216888604EE060
:10256000D5E902136A68206800F04AFE2068866890
:1025700026F0770646F07706206886603FE0D5E9CA
:1025800002136A68206800F03BFE2068806840F40F
:1025900080402168886032E0EA686968206800F05D
:1025A00045FE5021206800F037FE28E0EA6869689F
:1025B000206800F050FE6021206800F02DFE1EE033
:1025C000EA686968206800F031FE4021206800F068
:1025D00023FE14E00021206800F01EFE0FE0102111
:1025E000206800F019FE0AE02021206800F014FEA7
:1025F00005E03021206800F00FFE00E000BF00BFC2
:10260000012084F83D0000BF002084F83C0000BF9A
:1026100000BF71E7704710B5044620680069C0F339
:102620004000D8B12068C068C0F34000B0B16FF07E
:10263000020021680861012020772068806900F08D
:10264000030018B12046FFF7E5FF05E0204600F043
:10265000ADF8204600F0ABF8002020772068006934
:10266000C0F38000D8B12068C068C0F38000B0B16A
:102670006FF00400216808610220207720688069DB
:1026800000F4407018B12046FFF7C4FF05E0204673
:1026900000F08CF8204600F08AF8002020772068AF
:1026A0000069C0F3C000D8B12068C068C0F3C000A2
:1026B000B0B16FF00800216808610420207720681D
:1026C000C06900F0030018B12046FFF7A3FF05E042
:1026D000204600F06BF8204600F069F800202077D3
:1026E00020680069C0F30010D8B12068C068C0F34A
:1026F0000010B0B16FF01000216808610820207749
:102700002068C06900F4407018B12046FFF782FFCE
:1027100005E0204600F04AF8204600F048F8002086
:1027200020772068006900F0010058B12068C06877
:1027300000F0010030B16FF001002168086120460F
:1027400000F036F820680069C0F3C01058B1206866
:10275000C068C0F3C01030B16FF08000216808611C
:102760002046FFF73FFE20680069C0F3801058B193
:102770002068C068C0F3801030B16FF0400021685D
:102780000861204600F028F820680069C0F3401076
:1027900058B12068C068C0F3401030B16FF020001D
:1027A000216808612046FFF71EFE10BD7047704784
:1027B00010B5044605480088401C044908800120E3
:1027C000034948700348FDF7E5FF10BD2A000020CB
:1027D00027000020B4040020704700BFFEE700007F
:1027E0000EB5002000900190029011481149086038
:1027F000002110488160C16041614FF46021C161D6
:1028000000200C49486001210A480161FDF7DEFE05
:1028100008B1FDF781FD0120009001900020029099
:1028200069460448FDF77CFD08B1FDF775FD0EBD56
:1028300000280140B404002000B585B000200190BC
:1028400002900390049000BF4E48806940F0100051
:102850004C4988610846806900F01000009000BF74
:1028600000BF00BF0846806940F02000886108462C
:10287000806900F02000009000BF00BF00BF084644
:10288000806940F0040088610846806900F0040017
:10289000009000BF00BF00BF0846806940F00800FC
:1028A00088610846806900F00800009000BF00BF02
:1028B00000224FF400513448FEF7F4F900224FF49F
:1028C00088713248FEF7EEF9002245F202013048E5
:1028D000FEF7E8F94FF4005001900120029000202B
:1028E00003900220049001A92748FEF745F8012033
:1028F0000190284802900020039001A92348FEF788
:102900003BF84FF488700190012002900020039062
:102910000220049001A91D48FEF72EF80120019025
:10292000002002900120039001A91948FEF724F825
:1029300045F2020001900120029000200390022045
:10294000049001A91248FEF717F84FF48070019027
:10295000104802900120039001A90D48FEF70CF8E1
:10296000002211460620FEF734FA0620FEF724FA6C
:10297000002211461720FEF72CFA1720FEF71CFA4A
:1029800005B000BD001002400010014000080140E9
:10299000000C0140000021101CB5002001900090A7
:1029A0001748184908604FF0FF304860002115486B
:1029B0008160FFF7B9F808B1FDF7AEFC00208DF893
:1029C00004008DF805008DF80600012201A90D48CC
:1029D000FFF7C8F908B1FDF79FFC01208DF8000052
:1029E0008DF801008DF8020000208DF8030001220F
:1029F00069460448FFF73AF908B1FDF78DFC1CBDA4
:102A0000002800403805002010B50E480E49086027
:102A10004FF48270486000210B488160C160016101
:102A200041614FF4007181610821C161002101629F
:102A3000416281620A21C162FFF722FA08B1FDF703
:102A40006BFC10BD003001404C05002010B50E4855
:102A50000E4908604FF48270486000210B48816085
:102A6000C160016141614FF4007181610021C16168
:102A70000162416281620A21C162FFF701FA08B175
:102A8000FDF74AFC10BD000000380040A4050020FE
:102A900000B587B000200390049005900690019047
:102AA00002901548154908604FF4E1504860002134
:102AB0001248816040F2E731C1600021016181610B
:102AC000FFF7C3FC08B1FDF727FC4FF480500390DB
:102AD00003A90A48FFF705FD08B1FDF71DFC2020FA
:102AE00001900020029001A90448FFF77DFC08B185
:102AF000FDF712FC07B000BD00080040FC050020F7
:102B000000BFFEE7704700F01F020121914042091B
:102B1000920002F1E022C2F80011704702480068FA
:102B2000C0F30220704700000CED00E010B5002853
:102B300007DA0A07140E054A00F00F031B1FD454CE
:102B400003E00A07130E024A135410BD18ED00E00B
:102B500000E400E010B5002444F00801002000F07B
:102B600079FA10BD10B5002444F00A01002000F0ED
:102B700071FA10BD20BF00BF7047704708B5084903
:102B80000968C9084FF47A72B1FBF2F14143009130
:102B900000BF00BF00994A1E00920029F9D108BD6C
:102BA00090000020014600BF080900EB80004200B1
:102BB00001F00F001044C0B270470146002203E04C
:102BC000521CA1F10A00C1B20A29F9D2100741EA48
:102BD000106070472DE9F04706468846002700241C
:102BE0000025A146F77B747BB57B00BF40E0012C3C
:102BF0000BD0032C09D0052C07D0072C05D0082CAE
:102C000003D00A2C01D00C2C0CD11F2D01D26D1C2D
:102C10002CE00C2C02D0641C012527E001240125A6
:102C20007F1C23E0042C05D0062C03D0092C01D0F6
:102C30000B2C06D11E2D01D26D1C17E0641C012542
:102C400014E0022C12D11C2D01D26D1C0EE01C2DA3
:102C500008D1B8B200F05CF808B16D1C06E0641C45
:102C6000012503E01D2D01D1641C012509F1010995
:102C7000C145BCD3F7737473B573EAB2E1B2384699
:102C800000F085F83073BDE8F08770B50446002584
:102C9000FEF70EF8054607E0FEF70AF8401BB0F510
:102CA0007A7F01D9032070BD2068406800F02000C1
:102CB0000028F1D02068406840F01000216848608A
:102CC0000020F0E770B5044600252068406820F039
:102CD000100021684860FDF7EBFF054607E0FDF7AF
:102CE000E7FF401BB0F57A7F01D9032070BD206853
:102CF000406800F020000028F1D00020F6E7000036
:102D000010B50248FEF7E1FD10BD000038050020B7
:102D1000014601F0030008B1002070476420B1FBB8
:102D2000F0F200FB121008B10120F6E74FF4C87072
:102D3000B1FBF0F200FB121008B90120EDE7002012
:102D4000EBE70146002200230868006A82B20868A7
:102D5000406A83B243EA0240704730B50146002220
:102D60000023002400200D68AD69AAB20D68ED694A
:102D7000ACB20D68AD69ABB29A4205D00D68ED6991
:102D800063F31F45284601E044EA024030BDF0B538
:102D900004460B460021002504F5FA61032B1BD2E3
:102DA000C3EBC30000EB03100926B0FBF6F01044A0
:102DB000001D4618481E06EB90066427B0FBF7F08E
:102DC000361A481EBF00B0FBF7F030440726B0FBB0
:102DD000F6F706FB17051AE0C3EBC30000EB031080
:102DE0000926B0FBF6F01044001D084400EB9100EA
:102DF0006426B1FBF6F6801B4FF4C876B1FBF6F6FD
:102E00003044801E0726B0FBF6F706FB1705E8B234
:102E1000F0BD70B504460D4600262046FFF735FF8D
:102E200008B101260AE0280C21680862A8B22168CE
:102E300048622046FFF746FF00B10126304670BDCC
:102E400070B504460D4600262046FFF71EFF08B168
:102E500001260AE0280C21688861A8B22168C861AF
:102E60002046FFF72FFF00B10126304670BD70B538
:102E70000446002545EA0401112000F0EBF870BD7E
:102E800010B50024002202210448FDF70BFF44F096
:102E90000B01002000F0DEF810BD0000000C014026
:102EA000F8B504460D4616462B46002280212046E2
:102EB000009600F055F828B1606D40F02000606584
:102EC0000320F8BD0020FCE701B582B0002001908E
:102ED000401E012301AA02A900900348FFF759F9F7
:102EE0009DF804000EBD00004C0500202DE9F041C6
:102EF00004460E461746002210210C48FDF7D2FE6C
:102F00002046FFF7E1FF8046002505E00020FFF79F
:102F1000DBFF7055681CC5B2BD42F7DB01221021F2
:102F20000248FDF7BFFE4046BDE8F08100080140C1
:102F300070B50446002210210848FDF7B3FE204674
:102F4000FFF7C2FFFF20FFF7BFFF05460122102158
:102F50000248FDF7A7FE284670BD000000080140AA
:102F60002DE9F04104460E4617461D46DDF818804F
:102F70003FE0681CE0B32DB1FDF79AFEA0EB08001E
:102F8000A84236D32068406820F0E00021684860FD
:102F90006068B0F5827F0DD1A068B0F5004F03D016
:102FA000A068B0F5806F05D12068006820F040006F
:102FB00021680860A06AB0F5005F0ED100BF2068EC
:102FC00000684DF6FF7108402168086020680068BD
:102FD00040F400502168086000BF012084F85100CF
:102FE00000BF002084F8500000BF0320BDE8F0813E
:102FF000FFE7206880683040B04201D1012000E046
:103000000020B842B5D10020F0E700002DE9F041E2
:1030100005460C461646002210210D48FDF742FEDB
:1030200045F02000FFF750FF8046002705E014F828
:10303000010BFFF749FF781CC7B2B742F7DB01224B
:1030400010210348FDF72EFE4046BDE8F081000048
:103050000008014070B504460D46002210210948C1
:10306000FDF720FE44F02000FFF72EFF064628461D
:10307000FFF72AFF012210210248FDF713FE304618
:1030800070BD000000080140704710B5FDF716FE46
:1030900010BD00B593B0282109A8FDF74AF8142106
:1030A00004A8FDF746F800200090019002900390DC
:1030B000052009904FF480300A9000200B900120E9
:1030C0000C900D9002201090C10311914FF4E0116B
:1030D000129109A8FEF77AF908B1FDF71DF90F2042
:1030E000049002200590002006904FF48060079025
:1030F00000200890022104A8FEF720F808B1FDF78F
:103100000BF9032000904FF4807001904FF4404081
:1031100002906846FDF77AFF08B1FDF7FDF813B09D
:1031200000BD00001148006840F001000F49086030
:10313000084640680E4908400C4948600846006847
:103140000C490840094908600846006820F48020BE
:1031500008600846406820F4FE0048604FF41F00F5
:103160008860C803044908607047000000100240EE
:103170000000FFF8FFFFF6FE08ED00E010B5024882
:10318000FFF749FA10BD0000FC050020002202688C
:10319000184B984208D0B0F1804F05D0164B98429A
:1031A00002D0164B984203D122F070024B681A43AA
:1031B000104B984208D0B0F1804F05D00E4B98428A
:1031C00002D00E4B984203D122F44072CB681A43CE
:1031D00022F080024B691A4302608B68C3620B685D
:1031E0008362044B984201D10B690363012343615D
:1031F00070470000002C014000040040000800401F
:1032000030B50C460021816821F47F4142EA032554
:1032100025432943816030BD0A460021816821F0A1
:10322000700142F0070319438160704730B50B46C7
:10323000144600210022026A056A25F00105056294
:10324000816921F0F00141EA041122F00A021A43D7
:103250008161026230BD30B50B4614460021002268
:10326000056A25F0100505628169026A21F4704142
:1032700041EA043122F0A00242EA031281610262B3
:1032800030BD00BFFEE700000FB4084B10B504A925
:1032900002AA039800F01CF8044602A9002000F0DE
:1032A000B8F9204610BC5DF814FB00001336000886
:1032B00002E008C8121F08C1002AFAD170477047FF
:1032C000002001E001C1121F002AFBD1704700005D
:1032D0002DE9FF4F8BB088460546002606E02528DD
:1032E0000BD0DDE90D1290476D1C761C2878002864
:1032F000F5D10FB03046BDE8F08F0024A146A246BC
:103300000122AE4900E0044315F8013F203B02FAD8
:1033100003F00842F7D128782A2810D06FF02F0246
:103320002878A0F13001092915D809EB890102EBB1
:10333000410144F0020400EB01096D1CF0E758F86C
:10334000041B5FEA010903D544F40054C9F10009E4
:1033500044F002046D1C28782E2817D115F8010FAF
:1033600044F004042A280ED06FF02F022878A0F130
:10337000300109290AD80AEB8A0102EB410100EB6E
:10338000010A6D1CF2E758F804AB6D1C28786C2814
:103390000FD006DC4C2817D068280DD06A2814D12D
:1033A00004E0742810D07A280FD10DE044F4001402
:1033B0000AE044F4801401E044F440146978814246
:1033C00002D104F580146D1C6D1C2878692865D025
:1033D00006DC00288DD0632827D0642806D15DE064
:1033E0006E2808D073282AD0752877D0DDE90D1211
:1033F0009047761CE0E0C4F30250022809D003286D
:103400000DD0D8F8001004280DD00E6008F1040883
:10341000D2E0D8F80010F217C1E90062F6E7D8F858
:1034200000100E80F2E70E70F0E718F8041B8DF81C
:10343000001000208DF80100EB46012003E058F851
:1034400004BB4FF0FF3061074FF0000701D40AE0E2
:103450007F1C57450DDA8742FADB1BF8071000295D
:10346000F6D106E07F1C8742FCDB1BF80710002921
:10347000F8D1DDE90D23A9EB07008146214600F0D4
:10348000B1F83044C61904E0DDE90D121BF8010B58
:1034900090477F1EF8D22146484688E058F8040B32
:1034A000C4F302514FF00A0B032900D100B20429E2
:1034B00000D140B2002802DA40422D2102E021056D
:1034C00005D52B218DF82410012104E006E0E10749
:1034D00010D02021F6E708AF089113E058F8040B4C
:1034E000C4F302514FF00A0B032900D180B2042922
:1034F00000D1C0B20021EEE75946FCF725FE30317D
:1035000007F8011D0028F7D1ADEB070000F1200BF3
:10351000600702D524F4803401E04FF0010ADA4557
:1035200002DDAAEB0B0000E00020824600EB0B015D
:1035300008980144A9EB01000A90E00306D4DDE9F4
:103540000D2321460A9800F04DF806444FF000097B
:1035500008E009A911F80900DDE90D12904709F109
:103560000109761C08998945F3DBE0030CD5DDE9F8
:103570000D2321460A9800F035F8064404E0DDE901
:103580000D1230209047761CBAF10001AAF1010A11
:10359000F5DC05E0DDE90D1217F8010B9047761C0C
:1035A000BBF10001ABF1010BF4DC0A982146DDE927
:1035B0000D2300F005F806446D1C97E6092801006C
:1035C0002DE9F041044600251E461746880404D420
:1035D00005E039462020B0476D1C641EF9D5284609
:1035E000BDE8F0812DE9F041044600251E469046D5
:1035F000C80301D5302700E02027880404D505E062
:1036000041463846B0476D1C641EF9D52846BDE8D2
:10361000F0810A68531C0B6010707047FDF75AFB6D
:10362000FFF737FDFFF708F9FFF7B6F9FFF70EFAD6
:10363000FFF7EAF9FFF7D4F8FFF72AFAFE48FEF79A
:1036400069F90320FFF75FFA1E20FFF75CFAFB48D9
:10365000FEF738FFFDF710FCFDF73AF9FCF712FE14
:1036600000F058FC002000F045FC00F0DDFC4FF4B9
:10367000FA70FDF737F90221002000F0CFFC01239A
:10368000EF4806C8EFA000F081FD2421002000F0E3
:10369000C5FC0123EA4806C8EDA000F077FD00F064
:1036A000C3FC40F2DC50FDF71DF9002000F022FCC5
:1036B00024211A2000F0B2FC0123E74806C8E7A045
:1036C00000F064FD00F0B0FC40F2DC50FDF70AF9B8
:1036D00000F00EFB4FF41670E24908800220E24928
:1036E0000870E8E27EE0E1480078DF490978884226
:1036F00010D0DD480078DD4908700020DC490870F2
:10370000FFF7C7FCFFF748F9CB48FEF703F90320A2
:10371000FFF7F9F9D6480078052803DA6420FDF7A9
:10372000E1F817E0D3480078282806DB0220D249C8
:1037300008700020CF4908700CE0CD4800780528BB
:1037400008DBCC480078282804DA0020CA49087031
:10375000C8490870C848007820BB0320C6490870D3
:103760000020C1490870FFF7F5F92421002000F07E
:1037700055FC0123B84806C8C0A000F007FD00F0C2
:1037800053FC40F2DC50FDF7ADF8AE2000F0C0FC79
:10379000A948FEF7DCF8BC49087001210846FDF78E
:1037A0007BFB1FE0B448007802281BD100F0B2FB7D
:1037B00000F09EFA24211A2000F030FC0123A648D4
:1037C00006C8B2A000F0E2FC00F02EFC00224FF48C
:1037D0000051B048FDF766FA0020A54908700220A4
:1037E000A1490870A048007801283FF47CAF5DE251
:1037F0009E4800789C490978884207D09A4800780A
:103800009A4908704FF41670964908809A480078D3
:1038100018BB032098490870002093490870FFF7EF
:1038200099F92421002000F0F9FB01238A4806C8F9
:1038300092A000F0ABFC00F0F7FB40F2DC50FDF78B
:1038400051F8AE2000F064FC7B48FEF780F88E490A
:10385000087001210846FDF71FFB8F48807878B378
:1038600000208D4988708D4800780A280CDC8C482F
:1038700000688C49096808448949086087480078CD
:10388000401C864908701BE0854800685021B0FB49
:10389000F1F0854908600020814908607F4908707F
:1038A000814800686421B0FBF1F0804908707E48CF
:1038B00000686421B0FBF1F201FB12007C49087042
:1038C0007C4800883C2190FBF1F07B490870084659
:1038D0000078C0EB001077490988A1EB8000774998
:1038E000087000247648006884B27548001F00689C
:1038F00044EA0040C0F50040724908607248007810
:1039000038B1084600684FF47A714843C00B6F49DC
:10391000086000226E494848FEF784F800226D498D
:103920004548FEF756F85C484078002848D000200B
:1039300059494870684800F03FFC684800F03CFC7A
:10394000674800F039FC674800F036FC664800F034
:1039500033FC002000F0CEFA5448027863A161489D
:10396000FFF792FC5248027862A15F48FFF78CFC97
:103970000221002000F052FB0123314806C85FA05D
:1039800000F004FC01232E4806C8564800F0FEFB58
:1039900001232B4806C8544800F0F8FB5948028818
:1039A00059A14F48FFF770FC2421002000F036FB9E
:1039B0000123294806C84A4800F0E8FB00F034FB20
:1039C0002B480078032804DD012251033148FDF71C
:1039D00069F901214E48FDF75DF900282AD1082038
:1039E000FFF7A6FA4B49C8730846C07B0011C870A0
:1039F0000420FFF79DFA474908740720FFF798FA5B
:103A00004449487008464078C0F3801088710846E1
:103A10004078C0F34010C87108464078C0F30010E9
:103A200008721720FFF784FA00F001003949487244
:103A3000084671E0CAE0000038050020FC050020BF
:103A4000100000207665723A20302E310000000010
:103A500069643A203100000018000020535441529C
:103A60005421000022000020240000202500002016
:103A7000820000202000002026000020496E6163A3
:103A800074697665000000004B0000204163746992
:103A9000766500000010014027000020480000204B
:103AA000400000203C00002044000020490000208D
:103AB0004A000020540000205D0000205C0000202F
:103AC00014280040580000207800002060000020EA
:103AD0004D000020500000206400002067000020FE
:103AE0006A0000206E000020700000202530316444
:103AF0002C00000025303269205600004261743AE3
:103B0000200000003800002052783A25303464004C
:103B1000000C014094040020C07910B90846007AD6
:103B200030B300206449C8710720FFF701FA6249E9
:103B30004870084641780720FFF78CFA042000F00F
:103B400077F95D48007A10B100205B4908725A4845
:103B5000C0780F280CD100205749C8700520FFF706
:103B6000E7F9554988730846817B0520FFF772FA0B
:103B70005148807950B300204F49887116E00020E9
:103B800005E000224C491B310A54411CC8B20428EC
:103B9000F7DB042248491B316120FFF7A7F9172002
:103BA000FFF7C6F900F00100434948724248407AE5
:103BB0000028E4D0404841780720FFF74BFAFF2166
:103BC000E220FFF747FA01203C4908703B480078A3
:103BD00001286AD10020394908703748C07E54282E
:103BE00063D13548007F522832D13548007870BB08
:103BF000012234493448FEF7B5F84FF416703349C2
:103C000008802D48817F407F01EB002030490880EB
:103C1000084600884FF47A7190FBF1F02D49088036
:103C20000846008800EB4001C1EBC0102849098814
:103C3000A1EBC00028490880264800882749088051
:103C400001201F4908700020254908702DE0FFE77A
:103C50001948007F532828D10020194908704FF4D3
:103C600016701A4908801F480088401C1D490880AA
:103C70001B480078C8B90120194908701A48006823
:103C80001549098808441849086008460068B0F5D5
:103C90007A7F0AD311480088401C104908801248D6
:103CA0000068A0F57A701049086000BF0F480078DE
:103CB00002283FF49DAD15E5940400207700002014
:103CC000780000204D000020380500202200002050
:103CD0002E00002030000020320000205400002080
:103CE0007900002036000020600000202400002021
:103CF00010B546204D49887520214C48C175882152
:103D000001764121417670218176FEF723FF022062
:103D1000FCF7E8FD0020FFF70BF944490870072085
:103D2000FFF706F941494870FEF71CFF0220FCF737
:103D3000D9FD042000F07CF80020FFF7F9F83B499A
:103D400008700720FFF7F4F83849487008464178B2
:103D50000720FFF77FF90720FFF7EAF8334948709B
:103D60000720FFF7E5F8314948701720FFF7E0F822
:103D70002E498870FF21E120FFF76CF9FF21E22036
:103D8000FFF768F91720FFF7D3F828498870052254
:103D900016311020FFF73AF90522244916310A207E
:103DA000FFF734F90522214911310A20FFF79EF867
:103DB00006210846FFF74EF90620FFF7B9F81B4920
:103DC000C8720020FFF7B4F8184908700720FFF701
:103DD000AFF8164948700820FFF7AAF81349C873CE
:103DE0000420FFF7A5F81149087400210120FFF70E
:103DF00031F90120FFF79CF80C4948710220FFF7C8
:103E000097F80A4908710520FFF792F80749887367
:103E10000846817B0520FFF71DF90F200349087430
:103E20000846017C0420FFF715F910BD940400201A
:103E300010B504462046FFF71AF8FFF721F8962040
:103E4000FCF746FA012202210148FCF72BFF10BDC6
:103E5000000C0140F0B503461446802B01DA4029DE
:103E600000DBF0BD2148007920B10CB9012000E051
:103E700000200446012C1CD1CD1701EB5575ED1027
:103E800003EBC5151A4E755D0A46CE1701EB567643
:103E9000F610A1EBC6070126BE403543EEB2084638
:103EA000CD1701EB5575ED1003EBC515104F7E5581
:103EB0001AE0CD1701EB5575ED1003EBC5150C4E4F
:103EC000755D0A46CE1701EB5676F610A1EBC607D4
:103ED0000126BE40B5430846CE1701EB5676F610D4
:103EE00003EBC616024FBD5500BFBAE70000002025
:103EF000940000200146002006E009B9002200E0FD
:103F0000FF22034B1A54401CB0F5806FF5D3704765
:103F10009400002010B500F065F86420FCF7E2FC86
:103F2000AE2000F0F5F8202000F0F2F8102000F0AC
:103F3000EFF8B02000F0ECF8C82000F0E9F800201D
:103F400000F0E6F8102000F0E3F8402000F0E0F880
:103F5000812000F0DDF8FF2000F0DAF8A12000F069
:103F6000D7F8A62000F0D4F8A82000F0D1F83F2020
:103F700000F0CEF8A42000F0CBF8D32000F0C8F871
:103F8000002000F0C5F8D52000F0C2F8F02000F0C5
:103F9000BFF8D92000F0BCF8222000F0B9F8DA20F0
:103FA00000F0B6F8122000F0B3F8DB2000F0B0F813
:103FB000202000F0ADF88D2000F0AAF8142000F0C9
:103FC000A7F8AF2000F0A4F80020FFF793FF00F05F
:103FD0002BF800200249088048800120487110BD5C
:103FE0000000002010B5012211030A48FCF75AFE18
:103FF00000224FF480710848FCF754FE0A20FCF7B9
:1040000071FC012211020448FCF74CFE0A20FCF767
:1040100069FC10BD000C014000080140014A1080FD
:10402000518070470000002010B5002413E004F117
:10403000B001C8B200F06CF8002000F069F8102060
:1040400000F066F80549802202FB0410114600F0DA
:104050007DF8601CC4B2082CE9DB10BD9400002080
:104060002DE9FF4107461E46284800889DF80410A8
:104070000844802806DA254840889DF80510084441
:10408000402803DB002004B0BDE8F081002430E0CC
:10409000A7F120009DF8051000FB0140029931F8BE
:1040A0001080002520E008FA05F000F4004058B127
:1040B000164A92782244D1B2144A12782A44D0B2D5
:1040C0003246FFF7C7FE0EE00EB9012300E00023E1
:1040D0001A460E4B9B782344D9B20C4B1B782B44C9
:1040E000D8B2FFF7B7FE6D1C9DF80400A842DAD8DD
:1040F000641C9DF80500A042CAD8044800889DF8B9
:1041000004100844014908803846BCE7000000203C
:1041100001B500224FF480510A48FCF7C3FD00228C
:104120004FF480410748FCF7BDFD4FF0FF330122FB
:1041300069460548FDF75AFF012211030148FCF7C3
:10414000B1FD08BD000C0140A405002070B5044677
:104150000D4600224FF480510A48FCF7A3FD0122CE
:1041600091030848FCF79EFDAAB24FF0FF332146A9
:104170000548FDF73BFF012211030248FCF792FDC1
:1041800070BD0000000C0140A40500203FB50446AE
:104190001D460CE020782B46DDE90112FFF760FF99
:1041A0002178884202D0207804B030BD641C207889
:1041B0000028EFD12078F7E70146002003E0002235
:1041C0000A54421CD0B20028F9D070470000000009
:1041D00000000000000000000000000000000000DF
:1041E000001000100010001000100010000000105F
:1041F0000000000000280028002800000000000047
:10420000000000000000000000240024007C0024C6
:104210000048007C004800480000000000380054BE
:104220000050003800140054005400380010000002
:1042300000200054005800300028005400140008EA
:104240000000000000100028002800100034004882
:1042500000480034000000000010001000100000B2
:104260000000000000000000000000000008001036
:104270000020002000200020002000200010000866
:1042800000200010000800080008000800080008CE
:10429000001000200010003800100028000000006E
:1042A00000000000000000000000000000100010EE
:1042B000007C001000100000000000000000000062
:1042C00000000000000000000000001000100010BE
:1042D00000000000000000000000003800000000A6
:1042E00000000000000000000000000000000000CE
:1042F000000000100000000000080008001000107E
:1043000000100010002000200000000000380044D1
:104310000044005400440044004400380000000001
:1043200000100030005000100010001000100010AD
:1043300000000000003800440044000400080010A1
:104340000020007C00000000003800440004001839
:1043500000040004004400380000000000080018B9
:10436000002800280048007C000800080000000029
:10437000007C004000400078000400040044003845
:104380000000000000380044004000780044004471
:104390000044003800000000007C00040008001009
:1043A0000010002000200020000000000038004421
:1043B000004400380044004400440038000000007D
:1043C0000038004400440044003C0004004400382D
:1043D00000000000000000000010000000000000CD
:1043E00000000010000000000000000000000010AD
:1043F000000000000000001000100010000000008D
:10440000000C003000400030000C000000000000F4
:10441000000000000000007C0000007C00000000A4
:1044200000000000000000000060001800040018F8
:104430000060000000000000003800440004000894
:1044400000100010000000100000000000380044C0
:10445000004C0054005C00400040003800000000A8
:1044600000100028002800280028007C0044004498
:10447000000000000078004400440078004400443C
:104480000044007800000000003800440040004074
:104490000040004000440038000000000070004868
:1044A0000044004400440044004800700000000044
:1044B000007C00400040007C004000400040007C48
:1044C00000000000007C00400040007800400040F8
:1044D0000040004000000000003800440040004060
:1044E000005C004400440038000000000044004428
:1044F0000044007C004400440044004400000000EC
:1045000000380010001000100010001000100038DB
:104510000000000000040004000400040004000483
:1045200000440038000000000044004800500060D3
:1045300000500048004800440000000000400040D7
:1045400000400040004000400040007C00000000AF
:104550000044006C006C00540044004400440044DB
:104560000000000000440064006400540054004C4B
:10457000004C0044000000000038004400440044A7
:10458000004400440044003800000000007800446B
:10459000004400440078004000400040000000005B
:1045A00000380044004400440044004400540038F3
:1045B00000040000007800440044004400780048F3
:1045C0000048004400000000003800440040003073
:1045D000000800040044003800000000007C0010C7
:1045E000001000100010001000100010000000006B
:1045F00000440044004400440044004400440038A7
:104600000000000000440044004400280028002866
:10461000001000100000000000440044005400544A
:104620000054006C0028002800000000004400280E
:10463000002800100010002800280044000000009E
:104640000044004400280028001000100010001052
:1046500000000000007C0004000800100010002092
:104660000040007C00000000001800100010001046
:104670000010001000100010001000180020002092
:1046800000100010001000100008000800000000DA
:10469000003000100010001000100010001000107A
:1046A0000010003000100028002800440000000026
:1046B00000000000000000000000000000000000FA
:1046C0000000000000000000000000FE00200010BC
:1046D00000000000000000000000000000000000DA
:1046E0000000000000380044003C0044004C00344E
:1046F00000000000004000400058006400440044F6
:104700000064005800000000000000000038004471
:104710000040004000440038000000000004000495
:104720000034004C00440044004C00340000000001
:104730000000000000380044007C004000440038C5
:1047400000000000000C0010007C001000100010A1
:104750000010001000000000000000000034004CB9
:1047600000440044004C0034000400780040004045
:10477000005800640044004400440044000000006D
:104780000010000000700010001000100010001059
:104790000000000000100000007000100010001069
:1047A00000100010001000E00040004000480050E1
:1047B000006000500048004400000000007000103D
:1047C0000010001000100010001000100000000089
:1047D00000000000007800540054005400540054BD
:1047E0000000000000000000005800640044004485
:1047F00000440044000000000000000000380044B5
:1048000000440044004400380000000000000000A4
:104810000058006400440044006400580040004018
:10482000000000000034004C00440044004C003400
:104830000004000400000000005800640040004034
:10484000004000400000000000000000003800446C
:104850000030000800440038000000000020002064
:104860000078002000200020002000180000000038
:10487000000000000044004400440044004C0034A8
:104880000000000000000000004400440028002850
:104890000028001000000000000000000054005438
:1048A0000054006C002800280000000000000000F8
:1048B0000044002800100010002800440000000000
:1048C00000000000004400440028002800100010F0
:1048D0000010006000000000007C000800100020B4
:1048E0000040007C000000000018001000100010C4
:1048F0000020002000100010001000180010001010
:104900000010001000100010001000100010001027
:104910000030001000100010000800080010001007
:10492000001000300000000000000074004C000087
:104930000000000000000000000000000000000077
:104940000000000000000000000000000000000067
:104950000000000000000000000000000000000C4B
:10496000000C000C000C000C000C000C000C000CE7
:10497000000C000C0000000C000C00000000000007
:104980000000001B001B001B001B001B00000000A0
:104990000000000000000000000000000000000017
:1049A0000000000000008019801980198019C07F64
:1049B000C07F80190033C07FC07F003300330033D5
:1049C00000330000000000000000001E003F807562
:1049D00080650074003C001E0007800580658065CE
:1049E0008075003F001E00040004000000000070FD
:1049F00000D840D8C0D880D900730006000C801BB6
:104A0000C036C066C046C00680030000000000003B
:104A10000000001E003F003300330033001E000C76
:104A2000C03CC066806380618063C03E801C000023
:104A3000000000000000000C000C000C000C000C3A
:104A40000000000000000000000000000000000066
:104A500000000000000000008000000100030006CC
:104A600000060004000C000C000C000C000C000CF4
:104A70000004000600060003000180000020001072
:104A80000018000C000C00040006000600060006DA
:104A9000000600060004000C000C001800100020A6
:104AA0000000000C002D003F001E0033000000003D
:104AB00000000000000000000000000000000000F6
:104AC00000000000000000000000000C000C000CC2
:104AD000000CC0FFC0FF000C000C000C000C00001C
:104AE00000000000000000000000000000000000C6
:104AF00000000000000000000000000000000000B6
:104B00000000000C000C000400040008000000007D
:104B10000000000000000000000000000000001E77
:104B2000001E000000000000000000000000000067
:104B30000000000000000000000000000000000075
:104B400000000000000000000000000C000C00004D
:104B50000000000000000003000300030006000640
:104B600000060006000C000C000C000C00180018D9
:104B700000180000000000000000001E003F00338D
:104B8000806180618061806D806D80618061806105
:104B90000033003F001E000000000000000000067F
:104BA000000E001E00360026000600060006000665
:104BB00000060006000600060006000000000000D7
:104BC0000000001E003F807380618061800100034F
:104BD0000006000C001800300060807F807F00001D
:104BE000000000000000001C003E006300630003A2
:104BF000000E000E00038001800180618073003F81
:104C0000001E00000000000000000006000E000E64
:104C1000001E001E0016003600360066807F807F72
:104C20000006000600060000000000000000007FF3
:104C3000007F006000600060006E007F8063800184
:104C4000800180618073003F001E000000000000B2
:104C50000000001E003F803380610060006E007F16
:104C600080738061806180618033003F001E00009E
:104C7000000000000000807F807F800100030003AF
:104C800000060006000C000C000C000800180018BC
:104C900000180000000000000000001E003F8063BC
:104CA000806180610021001E003F80618061806121
:104CB0008061003F001E0000000000000000001E98
:104CC000003F00738061806180618073803F801D40
:104CD000800180610073003F001E000000000000A2
:104CE00000000000000000000000000C000C0000AC
:104CF00000000000000000000000000C000C00009C
:104D000000000000000000000000000000000000A3
:104D1000000C000C00000000000000000000000C6F
:104D2000000C000400040008000000000000000067
:104D300080008003000E003800600038000E800301
:104D400080000000000000000000000000000000E3
:104D5000000000000000807F807F00000000807F56
:104D6000807F000000000000000000000000000044
:104D7000000000000000000000400070001C000760
:104D800080010007001C00700040000000000000CF
:104D9000000000000000001F803FC071C060C00024
:104DA000C00180030007000E000C000C0000000C86
:104DB000000C0000000000000000001E003F8031D9
:104DC00080718063806F806D806D806F8067006010
:104DD0000032003E001C0000000000000000000E39
:104DE000000E001B001B001B001B80318031803F28
:104DF000803F8031C060C060C060000000000000E3
:104E00000000007C007E0063006300630063007E9E
:104E1000007E0063806180618063007F007E00000F
:104E2000000000000000001E003F80318061006033
:104E30000060006000600060006080618031003FC1
:104E4000001E0000000000000000007C007F0063E6
:104E500080638061806180618061806180610063C6
:104E60000063007E007C0000000000000000807FE6
:104E7000807F0060006000600060007F007F006055
:104E8000006000600060807F807F00000000000004
:104E90000000807F807F0060006000600060007F15
:104EA000007F006000600060006000600060000043
:104EB000000000000000001E003F803180610060A3
:104EC0000060006080638063806180618031803F2A
:104ED000001E000000000000000080618061806111
:104EE000806180618061807F807F8061806180617E
:104EF0008061806180610000000000000000003FD0
:104F0000003F000C000C000C000C000C000C000C0E
:104F1000000C000C000C003F003F000000000000EF
:104F200000008001800180018001800180018001FA
:104F300080018001806180618073003F001E00005D
:104F4000000000000000C060806100630066006631
:104F5000006C0078007C0066006600638061806100
:104F6000C060000000000000000000600060006001
:104F70000060006000600060006000600060006031
:104F80000060807F807F0000000000000000C07192
:104F9000C071C07BC07AC06AC06AC06EC064C060A5
:104FA000C060C060C060C060C06000000000000061
:104FB000000080718071807980798079806D806D4A
:104FC000806D806580678067806780638063000094
:104FD000000000000000001E003F0033806180617F
:104FE0008061806180618061806180610033003F09
:104FF000001E0000000000000000007E007F8063B3
:105000008061806180618063007F007E006000605D
:105010000060006000600000000000000000001E52
:10502000003F0033806180618061806180618061C8
:10503000806580670033803F401E00000000000054
:105040000000007E007F8063806180618063007F5C
:10505000007E00660063006380618061C0600000C4
:10506000000000000000000E001F80318031003081
:105070000038001E00078003806180618031003F9E
:10508000001E0000000000000000C0FFC0FF000C78
:10509000000C000C000C000C000C000C000C000CB0
:1050A000000C000C000C00000000000000008061FB
:1050B00080618061806180618061806180618061E8
:1050C000806180618073003F001E000000000000CE
:1050D0000000C060C060C060803180318031001B42
:1050E000001B001B001B000E000E000E0004000041
:1050F000000000000000C0C0C0C0C0C0C0C0C0C030
:10510000C0CC804C804C805E805280528073806125
:1051100080610000000000000000C0C0806080616D
:105120000033003B001E000C000C001E001F003B63
:1051300080718061C0C00000000000000000C0C09D
:105140008061806100330033001E001E000C000CE3
:10515000000C000C000C000C000C00000000000013
:105160000000803F803F8001000300030006000C28
:10517000000C0018001800300060807F807F000065
:1051800000000000000F000F000C000C000C000CD1
:10519000000C000C000C000C000C000C000C000CAF
:1051A000000C000C000F000F000000180018001881
:1051B000000C000C000C000C0006000600060006A7
:1051C000000300030003000000000000001E001E9A
:1051D000000600060006000600060006000600069F
:1051E000000600060006000600060006001E001E5F
:1051F0000000000C000C001E001200330033806120
:1052000080610000000000000000000000000000BD
:10521000000000000000000000000000000000008E
:10522000000000000000000000000000000000007E
:1052300000000000E0FF0000000000380018000C33
:10524000000000000000000000000000000000005E
:10525000000000000000000000000000000000004E
:10526000000000000000001F803F80618001801F5F
:10527000803F80618063807FC038000000000000B4
:1052800000000060006000600060006E007F8073BE
:1052900080618061806180618073007F006E0000AA
:1052A0000000000000000000000000000000001EE0
:1052B000003F807380610060006080618073003F08
:1052C000001E00000000000000008001800180013D
:1052D0008001801D803F807380618061806180617A
:1052E0008073803F801D000000000000000000006F
:1052F000000000000000001E003F00738061807FFE
:10530000807F00608071003F001E000000000000F0
:105310000000C007C00F000C000C807F807F000CD5
:10532000000C000C000C000C000C000C000C000029
:10533000000000000000000000000000801D803F11
:10534000807380618061806180618073803F801D97
:1053500080018063007F003E00000060006000600C
:105360000060006F807F80718061806180618061FA
:105370008061806180610000000000000000000684
:10538000000600000000003E003E00060006000689
:1053900000060006000600060006000000000000EF
:1053A0000006000600000000003E003E0006000669
:1053B000000600060006000600060006000600467D
:1053C000007E003C000000600060006000608061C2
:1053D00000630066006C007C0076006300638061FF
:1053E000C0600000000000000000003E003E00061B
:1053F000000600060006000600060006000600067D
:10540000000600060006000000000000000000008A
:1054100000000000000080DDC0FFC0CEC0CCC0CCCA
:10542000C0CCC0CCC0CCC0CCC0CC000000000000C0
:1054300000000000000000000000006F807F80710D
:105440008061806180618061806180618061000035
:105450000000000000000000000000000000001E2E
:10546000003F807380618061806180618073003F54
:10547000001E00000000000000000000000000000E
:10548000006E007F807380618061806180618073C5
:10549000007F006E0060006000600060000000009F
:1054A00000000000801D803F80738061806180610A
:1054B00080618073803F801D8001800180018001B8
:1054C000000000000000000000000067803F00397D
:1054D000003000300030003000300030003000007C
:1054E0000000000000000000000000000000001E9E
:1054F000803F80610060007F803F80018061007F8D
:10550000001E00000000000000000000000800185D
:105510000018007F007F00180018001800180018FD
:105520000018801F800F0000000000000000000035
:105530000000000000008061806180618061806106
:10554000806180618063807F803D000000000000FA
:1055500000000000000000000000C06080318031C9
:105560008031001B001B001B000E000E0006000017
:10557000000000000000000000000000000080DDCE
:1055800080DD80DD00550055005500770077002252
:1055900000220000000000000000000000000000E9
:1055A0000000806100330033001E000C000C001E60
:1055B00000330033806100000000000000000000A4
:1055C0000000000080618061803100330033001BE7
:1055D000001B001B000E000E000E001C007C007063
:1055E00000000000000000000000C07FC07F8001BC
:1055F00000030006000C00180030C07FC07F0000D0
:105600000000000080038007000600060006000678
:105610000006000E001C001C000E0006000600061E
:10562000000600068007800300060006000600064C
:10563000000600060006000600060006000600063A
:105640000006000600060006000600060038003CC2
:10565000000C000C000C000C000C000E00070007F2
:10566000000E000C000C000C000C000C003C00387C
:105670000000000000000000000000000000803872
:10568000807F0047000000000000000000000000D4
:10569000000000000000000000000000000000000A
:1056A00000000000000000000000000000000000FA
:1056B00000000000000000000000000000000000EA
:1056C0000000000000000000E003E003E003E0034E
:1056D000E003E003E003E003C003C003C001C00136
:1056E000C001C001C001000000000000E003E003B1
:1056F000E003000000000000000000003C1E3C1E13
:105700003C1E3C1E3C1E3C1E3C1E000000000000D7
:105710000000000000000000000000000000000089
:105720000000000000000000000000000000000079
:10573000CE01CE03DE039E039C039C07FF3FFF7F49
:105740003807380F780F780F780EFFFFFFFFF01E35
:10575000F01CE01CE03CE03DE039000000000000EF
:1057600000000000FC03FE0FEE1FE01EE01EE01E26
:10577000E01EE01FE00FE007F003FC01FE01FE0168
:10578000FE01FE01FE01FE01FE3DFC3FF00FE001C7
:10579000E001000000000000033E07F78FE78EE7FE
:1057A0009EE3BCE3B8E7F8E7F0F7E03FC001FF0392
:1057B000FF07F307F30FF31EF33CF338F3787FF0A2
:1057C0003FE000000000000000000000E007F80FCC
:1057D000780F781F781F781F780FF00FE00F801F69
:1057E000C37FC3FBE7F3F7F1F7F0FFF07FF03EF87C
:1057F0007F7CFF3FEF1F0000000000000000000062
:10580000E003E003E003E003E003C003C0010000A5
:105810000000000000000000000000000000000088
:105820000000000000000000000000000000000078
:10583000000000003F007C00F001E001C003C00751
:1058400080078007800F000F000F000F000F000F70
:10585000000F800F80078007C007C003E001F00140
:105860007C003F000F000000007E001FC007C00347
:10587000E001F001F000F000F80078007800780016
:10588000780078007800F800F000F000F001E00106
:10589000C003C007001F007E00780000E003C003C3
:1058A000C001CE39FF3F7F3F20037003F807780F18
:1058B0003C1F38060000000000000000000000004F
:1058C00000000000000000000000000000000000D8
:1058D000000000000000000000000000C001C00146
:1058E000C001C001C001C001C001FFFFFFFFC00136
:1058F000C001C001C001C001C001000000000000E3
:105900000000000000000000000000000000000097
:105910000000000000000000000000000000000087
:10592000000000000000E003E003E003E003E0010A
:10593000E001E001C0018003000000000000000061
:105940000000000000000000000000000000FE3F1A
:10595000FE3F00000000000000000000000000000A
:105960000000000000000000000000000000000037
:105970000000000000000000000000000000000027
:105980000000000000000000000000000000E00334
:10599000E003E003E003000000000000000000005E
:1059A0000F000F001E001E003C003C007800780035
:1059B000F000F000E001E001C003C00380078007B1
:1059C000000F000F001E001E003C003C0078007815
:1059D00000F00000F007F80F7C1F3E3E1E3C1F7CCD
:1059E0001F7C0F780F780F780F780F780F780F786B
:1059F0001F7C1F7C1E3C3E3E7C1FF80FF007000002
:105A00000000000000000000F000F007F03FF03F51
:105A1000F001F001F001F001F001F001F001F001FE
:105A2000F001F001F001F001F001F001F001FF3FA1
:105A3000FF3F00000000000000000000E00FF83F02
:105A40007C3C3C003E003E003E003C003C007C00B4
:105A5000F800F001E003C0078007000F001E003EC1
:105A6000003CFE3FFE3F0000000000000000000080
:105A7000F00FF81F7C1C3E003E003E003C003C0046
:105A8000F800F00FF80F7C003E001E001E001E0004
:105A90001E003E007C1CF81FE01F000000000000FC
:105AA000000000007800F800F800F801F803F8079B
:105AB000F807780F781E781E783C78787878FFFFA2
:105AC000FFFF780078007800780078007800000008
:105AD0000000000000000000FC1FFC1FFC1F001E57
